IP (tos 0x0, ttl 64, id 1, offset 0, flags [none], proto TCP (6), length 40)
    10.1.2.3.48620 > 10.9.8.7.8: Flags [S], cksum 0xb3d9 (correct), seq 1, win 8192, length 0
	0x0000:  0209 0807 0605 0201 0203 0405 0800 4500  ..............E.
	0x0010:  0028 0001 0000 4006 5cbc 0a01 0203 0a09  .(....@.\.......
	0x0020:  0807 bdec 0008 0000 0001 0000 0000 5002  ..............P.
	0x0030:  2000 b3d9 0000                           ......
IP (tos 0x0, ttl 64, id 1, offset 0, flags [none], proto TCP (6), length 40)
    10.9.8.7.8 > 10.1.2.3.48620: Flags [S.], cksum 0xb3c7 (correct), seq 1, ack 2, win 8192, length 0
	0x0000:  0201 0203 0405 0209 0807 0605 0800 4500  ..............E.
	0x0010:  0028 0001 0000 4006 5cbc 0a09 0807 0a01  .(....@.\.......
	0x0020:  0203 0008 bdec 0000 0001 0000 0002 5012  ..............P.
	0x0030:  2000 b3c7 0000                           ......
IP (tos 0x0, ttl 64, id 2, offset 0, flags [none], proto TCP (6), length 40)
    10.1.2.3.48620 > 10.9.8.7.8: Flags [.], cksum 0xb3c8 (correct), ack 1, win 8192, length 0
	0x0000:  0209 0807 0605 0201 0203 0405 0800 4500  ..............E.
	0x0010:  0028 0002 0000 4006 5cbb 0a01 0203 0a09  .(....@.\.......
	0x0020:  0807 bdec 0008 0000 0002 0000 0002 5010  ..............P.
	0x0030:  2000 b3c8 0000                           ......
IP (tos 0x0, ttl 64, id 62, offset 472, flags [+], proto TCP (6), length 28)
    10.1.2.3 > 10.9.8.7: tcp
	0x0000:  0209 0807 0605 0201 0203 0405 0800 4500  ..............E.
	0x0010:  001c 003e 203b 4006 3c50 0a01 0203 0a09  ...>.;@.<P......
	0x0020:  0807 7373 6520 656c 656d                 ..sse.elem
IP (tos 0x0, ttl 64, id 63, offset 0, flags [+], proto TCP (6), length 28)
    10.1.2.3.48620 > 10.9.8.7.8: [|tcp]
	0x0000:  0209 0807 0605 0201 0203 0405 0800 4500  ..............E.
	0x0010:  001c 003f 2000 4006 3c8a 0a01 0203 0a09  ...?..@.<.......
	0x0020:  0807 bdec 0008 0000 7802                 ........x.
IP (tos 0x0, ttl 64, id 68, offset 320, flags [+], proto TCP (6), length 28)
    10.1.2.3 > 10.9.8.7: tcp
	0x0000:  0209 0807 0605 0201 0203 0405 0800 4500  ..............E.
	0x0010:  001c 0044 2028 4006 3c5d 0a01 0203 0a09  ...D.(@.<]......
	0x0020:  0807 7370 656e 6469 7373                 ..spendiss
IP (tos 0x0, ttl 64, id 6, offset 304, flags [+], proto TCP (6), length 28)
    10.1.2.3 > 10.9.8.7: tcp
	0x0000:  0209 0807 0605 0201 0203 0405 0800 4500  ..............E.
	0x0010:  001c 0006 2026 4006 3c9d 0a01 0203 0a09  .....&@.<.......
	0x0020:  0807 6c69 742c 2065 7420                 ..lit,.et.
IP (tos 0x0, ttl 64, id 112, offset 520, flags [+], proto TCP (6), length 28)
    10.1.2.3 > 10.9.8.7: tcp
	0x0000:  0209 0807 0605 0201 0203 0405 0800 4500  ..............E.
	0x0010:  001c 0070 2041 4006 3c18 0a01 0203 0a09  ...p.A@.<.......
	0x0020:  0807 6e64 6974 2076 6974                 ..ndit.vit
IP (tos 0x0, ttl 64, id 42, offset 320, flags [+], proto TCP (6), length 28)
    10.1.2.3 > 10.9.8.7: tcp
	0x0000:  0209 0807 0605 0201 0203 0405 0800 4500  ..............E.
	0x0010:  001c 002a 2028 4006 3c77 0a01 0203 0a09  ...*.(@.<w......
	0x0020:  0807 732e 204e 756c 6c61                 ..s..Nulla
IP (tos 0x0, ttl 64, id 70, offset 488, flags [+], proto TCP (6), length 28)
    10.1.2.3 > 10.9.8.7: tcp
	0x0000:  0209 0807 0605 0201 0203 0405 0800 4500  ..............E.
	0x0010:  001c 0046 203d 4006 3c46 0a01 0203 0a09  ...F.=@.<F......
	0x0020:  0807 696e 6769 6c6c 6120                 ..ingilla.
IP (tos 0x0, ttl 64, id 28, offset 104, flags [+], proto TCP (6), length 28)
    10.1.2.3 > 10.9.8.7: tcp
	0x0000:  0209 0807 0605 0201 0203 0405 0800 4500  ..............E.
	0x0010:  001c 001c 200d 4006 3ca0 0a01 0203 0a09  ......@.<.......
	0x0020:  0807 2076 656c 2073 6170                 ...vel.sap
IP (tos 0x0, ttl 64, id 81, offset 64, flags [+], proto TCP (6), length 28)
    10.1.2.3 > 10.9.8.7: tcp
	0x0000:  0209 0807 0605 0201 0203 0405 0800 4500  ..............E.
	0x0010:  001c 0051 2008 4006 3c70 0a01 0203 0a09  ...Q..@.<p......
	0x0020:  0807 6420 6174 2070 7572                 ..d.at.pur
IP (tos 0x0, ttl 64, id 27, offset 96, flags [+], proto TCP (6), length 28)
    10.1.2.3 > 10.9.8.7: tcp
	0x0000:  0209 0807 0605 0201 0203 0405 0800 4500  ..............E.
	0x0010:  001c 001b 200c 4006 3ca2 0a01 0203 0a09  ......@.<.......
	0x0020:  0807 6175 6369 6275 7320                 ..aucibus.
IP (tos 0x0, ttl 64, id 55, offset 376, flags [+], proto TCP (6), length 28)
    10.1.2.3 > 10.9.8.7: tcp
	0x0000:  0209 0807 0605 0201 0203 0405 0800 4500  ..............E.
	0x0010:  001c 0037 202f 4006 3c63 0a01 0203 0a09  ...7./@.<c......
	0x0020:  0807 4e61 6d20 7365 6420                 ..Nam.sed.
IP (tos 0x0, ttl 64, id 108, offset 480, flags [+], proto TCP (6), length 28)
    10.1.2.3 > 10.9.8.7: tcp
	0x0000:  0209 0807 0605 0201 0203 0405 0800 4500  ..............E.
	0x0010:  001c 006c 203c 4006 3c21 0a01 0203 0a09  ...l.<@.<!......
	0x0020:  0807 7469 7320 7363 656c                 ..tis.scel
IP (tos 0x0, ttl 64, id 30, offset 400, flags [+], proto TCP (6), length 28)
    10.1.2.3 > 10.9.8.7: tcp
	0x0000:  0209 0807 0605 0201 0203 0405 0800 4500  ..............E.
	0x0010:  001c 001e 2032 4006 3c79 0a01 0203 0a09  .....2@.<y......
	0x0020:  0807 6175 6369 6275 7320                 ..aucibus.
IP (tos 0x0, ttl 64, id 10, offset 56, flags [+], proto TCP (6), length 28)
    10.1.2.3 > 10.9.8.7: tcp
	0x0000:  0209 0807 0605 0201 0203 0405 0800 4500  ..............E.
	0x0010:  001c 000a 2007 4006 3cb8 0a01 0203 0a09  ......@.<.......
	0x0020:  0807 616e 7465 2071 7561                 ..ante.qua
IP (tos 0x0, ttl 64, id 35, offset 296, flags [+], proto TCP (6), length 28)
    10.1.2.3 > 10.9.8.7: tcp
	0x0000:  0209 0807 0605 0201 0203 0405 0800 4500  ..............E.
	0x0010:  001c 0023 2025 4006 3c81 0a01 0203 0a09  ...#.%@.<.......
	0x0020:  0807 2c20 6d61 6c65 7375                 ..,.malesu
IP (tos 0x0, ttl 64, id 62, offset 160, flags [+], proto TCP (6), length 28)
    10.1.2.3 > 10.9.8.7: tcp
	0x0000:  0209 0807 0605 0201 0203 0405 0800 4500  ..............E.
	0x0010:  001c 003e 2014 4006 3c77 0a01 0203 0a09  ...>..@.<w......
	0x0020:  0807 616c 6971 7565 7420                 ..aliquet.
IP (tos 0x0, ttl 64, id 67, offset 232, flags [+], proto TCP (6), length 28)
    10.1.2.3 > 10.9.8.7: tcp
	0x0000:  0209 0807 0605 0201 0203 0405 0800 4500  ..............E.
	0x0010:  001c 0043 201d 4006 3c69 0a01 0203 0a09  ...C..@.<i......
	0x0020:  0807 6572 6174 2c20 6574                 ..erat,.et
IP (tos 0x0, ttl 64, id 53, offset 352, flags [+], proto TCP (6), length 28)
    10.1.2.3 > 10.9.8.7: tcp
	0x0000:  0209 0807 0605 0201 0203 0405 0800 4500  ..............E.
	0x0010:  001c 0035 202c 4006 3c68 0a01 0203 0a09  ...5.,@.<h......
	0x0020:  0807 7068 6172 6574 7261                 ..pharetra
IP (tos 0x0, ttl 64, id 21, offset 24, flags [+], proto TCP (6), length 28)
    10.1.2.3 > 10.9.8.7: tcp
	0x0000:  0209 0807 0605 0201 0203 0405 0800 4500  ..............E.
	0x0010:  001c 0015 2003 4006 3cb1 0a01 0203 0a09  ......@.<.......
	0x0020:  0807 2063 6f6d 6d6f 646f                 ...commodo
IP (tos 0x0, ttl 64, id 72, offset 392, flags [+], proto TCP (6), length 28)
    10.1.2.3 > 10.9.8.7: tcp
	0x0000:  0209 0807 0605 0201 0203 0405 0800 4500  ..............E.
	0x0010:  001c 0048 2031 4006 3c50 0a01 0203 0a09  ...H.1@.<P......
	0x0020:  0807 2e20 5072 6165 7365                 ....Praese
IP (tos 0x0, ttl 64, id 25, offset 0, flags [+], proto TCP (6), length 28)
    10.1.2.3.48620 > 10.9.8.7.8: [|tcp]
	0x0000:  0209 0807 0605 0201 0203 0405 0800 4500  ..............E.
	0x0010:  001c 0019 2000 4006 3cb0 0a01 0203 0a09  ......@.<.......
	0x0020:  0807 bdec 0008 0000 2c02                 ........,.
IP (tos 0x0, ttl 64, id 125, offset 88, flags [+], proto TCP (6), length 28)
    10.1.2.3 > 10.9.8.7: tcp
	0x0000:  0209 0807 0605 0201 0203 0405 0800 4500  ..............E.
	0x0010:  001c 007d 200b 4006 3c41 0a01 0203 0a09  ...}..@.<A......
	0x0020:  0807 7469 616d 2061 6320                 ..tiam.ac.
IP (tos 0x0, ttl 64, id 120, offset 144, flags [+], proto TCP (6), length 28)
    10.1.2.3 > 10.9.8.7: tcp
	0x0000:  0209 0807 0605 0201 0203 0405 0800 4500  ..............E.
	0x0010:  001c 0078 2012 4006 3c3f 0a01 0203 0a09  ...x..@.<?......
	0x0020:  0807 756d 206e 6f6e 206a                 ..um.non.j
IP (tos 0x0, ttl 64, id 80, offset 104, flags [+], proto TCP (6), length 28)
    10.1.2.3 > 10.9.8.7: tcp
	0x0000:  0209 0807 0605 0201 0203 0405 0800 4500  ..............E.
	0x0010:  001c 0050 200d 4006 3c6c 0a01 0203 0a09  ...P..@.<l......
	0x0020:  0807 7220 6d61 6c65 7375                 ..r.malesu
IP (tos 0x0, ttl 64, id 74, offset 352, flags [+], proto TCP (6), length 28)
    10.1.2.3 > 10.9.8.7: tcp
	0x0000:  0209 0807 0605 0201 0203 0405 0800 4500  ..............E.
	0x0010:  001c 004a 202c 4006 3c53 0a01 0203 0a09  ...J.,@.<S......
	0x0020:  0807 7574 6174 6520 6c69                 ..utate.li
IP (tos 0x0, ttl 64, id 16, offset 208, flags [+], proto TCP (6), length 28)
    10.1.2.3 > 10.9.8.7: tcp
	0x0000:  0209 0807 0605 0201 0203 0405 0800 4500  ..............E.
	0x0010:  001c 0010 201a 4006 3c9f 0a01 0203 0a09  ......@.<.......
	0x0020:  0807 7465 6d70 7573 2e20                 ..tempus..
IP (tos 0x0, ttl 64, id 18, offset 248, flags [+], proto TCP (6), length 28)
    10.1.2.3 > 10.9.8.7: tcp
	0x0000:  0209 0807 0605 0201 0203 0405 0800 4500  ..............E.
	0x0010:  001c 0012 201f 4006 3c98 0a01 0203 0a09  ......@.<.......
	0x0020:  0807 2070 6f72 7461 2061                 ...porta.a
IP (tos 0x0, ttl 64, id 130, offset 416, flags [+], proto TCP (6), length 28)
    10.1.2.3 > 10.9.8.7: tcp
	0x0000:  0209 0807 0605 0201 0203 0405 0800 4500  ..............E.
	0x0010:  001c 0082 2034 4006 3c13 0a01 0203 0a09  .....4@.<.......
	0x0020:  0807 6c65 6f20 7472 6973                 ..leo.tris
IP (tos 0x0, ttl 64, id 26, offset 168, flags [+], proto TCP (6), length 28)
    10.1.2.3 > 10.9.8.7: tcp
	0x0000:  0209 0807 0605 0201 0203 0405 0800 4500  ..............E.
	0x0010:  001c 001a 2015 4006 3c9a 0a01 0203 0a09  ......@.<.......
	0x0020:  0807 6564 2065 6765 7420                 ..ed.eget.
IP (tos 0x0, ttl 64, id 35, offset 32, flags [+], proto TCP (6), length 28)
    10.1.2.3 > 10.9.8.7: tcp
	0x0000:  0209 0807 0605 0201 0203 0405 0800 4500  ..............E.
	0x0010:  001c 0023 2004 4006 3ca2 0a01 0203 0a09  ...#..@.<.......
	0x0020:  0807 2056 6573 7469 6275                 ...Vestibu
IP (tos 0x0, ttl 64, id 34, offset 448, flags [+], proto TCP (6), length 28)
    10.1.2.3 > 10.9.8.7: tcp
	0x0000:  0209 0807 0605 0201 0203 0405 0800 4500  ..............E.
	0x0010:  001c 0022 2038 4006 3c6f 0a01 0203 0a09  ...".8@.<o......
	0x0020:  0807 6174 2e20 5365 6420                 ..at..Sed.
IP (tos 0x0, ttl 64, id 43, offset 152, flags [+], proto TCP (6), length 28)
    10.1.2.3 > 10.9.8.7: tcp
	0x0000:  0209 0807 0605 0201 0203 0405 0800 4500  ..............E.
	0x0010:  001c 002b 2013 4006 3c8b 0a01 0203 0a09  ...+..@.<.......
	0x0020:  0807 6f6e 7365 6374 6574                 ..onsectet
IP (tos 0x0, ttl 64, id 75, offset 408, flags [+], proto TCP (6), length 28)
    10.1.2.3 > 10.9.8.7: tcp
	0x0000:  0209 0807 0605 0201 0203 0405 0800 4500  ..............E.
	0x0010:  001c 004b 2033 4006 3c4b 0a01 0203 0a09  ...K.3@.<K......
	0x0020:  0807 6369 6475 6e74 2061                 ..cidunt.a
IP (tos 0x0, ttl 64, id 78, offset 136, flags [+], proto TCP (6), length 28)
    10.1.2.3 > 10.9.8.7: tcp
	0x0000:  0209 0807 0605 0201 0203 0405 0800 4500  ..............E.
	0x0010:  001c 004e 2011 4006 3c6a 0a01 0203 0a09  ...N..@.<j......
	0x0020:  0807 2076 656e 656e 6174                 ...venenat
IP (tos 0x0, ttl 64, id 128, offset 272, flags [+], proto TCP (6), length 28)
    10.1.2.3 > 10.9.8.7: tcp
	0x0000:  0209 0807 0605 0201 0203 0405 0800 4500  ..............E.
	0x0010:  001c 0080 2022 4006 3c27 0a01 0203 0a09  ....."@.<'......
	0x0020:  0807 2069 6e74 6572 6475                 ...interdu
IP (tos 0x0, ttl 64, id 27, offset 128, flags [+], proto TCP (6), length 28)
    10.1.2.3 > 10.9.8.7: tcp
	0x0000:  0209 0807 0605 0201 0203 0405 0800 4500  ..............E.
	0x0010:  001c 001b 2010 4006 3c9e 0a01 0203 0a09  ......@.<.......
	0x0020:  0807 742c 2069 6d70 6572                 ..t,.imper
IP (tos 0x0, ttl 64, id 76, offset 440, flags [+], proto TCP (6), length 28)
    10.1.2.3 > 10.9.8.7: tcp
	0x0000:  0209 0807 0605 0201 0203 0405 0800 4500  ..............E.
	0x0010:  001c 004c 2037 4006 3c46 0a01 0203 0a09  ...L.7@.<F......
	0x0020:  0807 6574 7261 2065 7261                 ..etra.era
IP (tos 0x0, ttl 64, id 21, offset 488, flags [+], proto TCP (6), length 28)
    10.1.2.3 > 10.9.8.7: tcp
	0x0000:  0209 0807 0605 0201 0203 0405 0800 4500  ..............E.
	0x0010:  001c 0015 203d 4006 3c77 0a01 0203 0a09  .....=@.<w......
	0x0020:  0807 7175 616d 2069 6420                 ..quam.id.
IP (tos 0x0, ttl 64, id 107, offset 48, flags [+], proto TCP (6), length 28)
    10.1.2.3 > 10.9.8.7: tcp
	0x0000:  0209 0807 0605 0201 0203 0405 0800 4500  ..............E.
	0x0010:  001c 006b 2006 4006 3c58 0a01 0203 0a09  ...k..@.<X......
	0x0020:  0807 6976 6572 7261 2066                 ..iverra.f
IP (tos 0x0, ttl 64, id 16, offset 448, flags [+], proto TCP (6), length 28)
    10.1.2.3 > 10.9.8.7: tcp
	0x0000:  0209 0807 0605 0201 0203 0405 0800 4500  ..............E.
	0x0010:  001c 0010 2038 4006 3c81 0a01 0203 0a09  .....8@.<.......
	0x0020:  0807 6e20 7469 6e63 6964                 ..n.tincid
IP (tos 0x0, ttl 64, id 41, offset 80, flags [+], proto TCP (6), length 28)
    10.1.2.3 > 10.9.8.7: tcp
	0x0000:  0209 0807 0605 0201 0203 0405 0800 4500  ..............E.
	0x0010:  001c 0029 200a 4006 3c96 0a01 0203 0a09  ...)..@.<.......
	0x0020:  0807 7573 2076 656c 6974                 ..us.velit
IP (tos 0x0, ttl 64, id 104, offset 360, flags [+], proto TCP (6), length 28)
    10.1.2.3 > 10.9.8.7: tcp
	0x0000:  0209 0807 0605 0201 0203 0405 0800 4500  ..............E.
	0x0010:  001c 0068 202d 4006 3c34 0a01 0203 0a09  ...h.-@.<4......
	0x0020:  0807 756d 2061 7263 7520                 ..um.arcu.
IP (tos 0x0, ttl 64, id 106, offset 520, flags [+], proto TCP (6), length 28)
    10.1.2.3 > 10.9.8.7: tcp
	0x0000:  0209 0807 0605 0201 0203 0405 0800 4500  ..............E.
	0x0010:  001c 006a 2041 4006 3c1e 0a01 0203 0a09  ...j.A@.<.......
	0x0020:  0807 7472 6963 6965 7320                 ..tricies.
IP (tos 0x0, ttl 64, id 115, offset 80, flags [+], proto TCP (6), length 28)
    10.1.2.3 > 10.9.8.7: tcp
	0x0000:  0209 0807 0605 0201 0203 0405 0800 4500  ..............E.
	0x0010:  001c 0073 200a 4006 3c4c 0a01 0203 0a09  ...s..@.<L......
	0x0020:  0807 7574 2072 6973 7573                 ..ut.risus
IP (tos 0x0, ttl 64, id 96, offset 368, flags [+], proto TCP (6), length 28)
    10.1.2.3 > 10.9.8.7: tcp
	0x0000:  0209 0807 0605 0201 0203 0405 0800 4500  ..............E.
	0x0010:  001c 0060 202e 4006 3c3b 0a01 0203 0a09  ...`..@.<;......
	0x0020:  0807 726f 696e 2073 6564                 ..roin.sed
IP (tos 0x0, ttl 64, id 105, offset 88, flags [+], proto TCP (6), length 28)
    10.1.2.3 > 10.9.8.7: tcp
	0x0000:  0209 0807 0605 0201 0203 0405 0800 4500  ..............E.
	0x0010:  001c 0069 200b 4006 3c55 0a01 0203 0a09  ...i..@.<U......
	0x0020:  0807 7075 7320 7075 6c76                 ..pus.pulv
IP (tos 0x0, ttl 64, id 125, offset 64, flags [+], proto TCP (6), length 28)
    10.1.2.3 > 10.9.8.7: tcp
	0x0000:  0209 0807 0605 0201 0203 0405 0800 4500  ..............E.
	0x0010:  001c 007d 2008 4006 3c44 0a01 0203 0a09  ...}..@.<D......
	0x0020:  0807 6c6c 6120 6964 2065                 ..lla.id.e
IP (tos 0x0, ttl 64, id 119, offset 112, flags [+], proto TCP (6), length 28)
    10.1.2.3 > 10.9.8.7: tcp
	0x0000:  0209 0807 0605 0201 0203 0405 0800 4500  ..............E.
	0x0010:  001c 0077 200e 4006 3c44 0a01 0203 0a09  ...w..@.<D......
	0x0020:  0807 656e 7465 7371 7565                 ..entesque
IP (tos 0x0, ttl 64, id 8, offset 160, flags [+], proto TCP (6), length 28)
    10.1.2.3 > 10.9.8.7: tcp
	0x0000:  0209 0807 0605 0201 0203 0405 0800 4500  ..............E.
	0x0010:  001c 0008 2014 4006 3cad 0a01 0203 0a09  ......@.<.......
	0x0020:  0807 7265 6574 206e 756c                 ..reet.nul
IP (tos 0x0, ttl 64, id 130, offset 72, flags [+], proto TCP (6), length 28)
    10.1.2.3 > 10.9.8.7: tcp
	0x0000:  0209 0807 0605 0201 0203 0405 0800 4500  ..............E.
	0x0010:  001c 0082 2009 4006 3c3e 0a01 0203 0a09  ......@.<>......
	0x0020:  0807 7469 6e63 6964 756e                 ..tincidun
IP (tos 0x0, ttl 64, id 63, offset 32, flags [+], proto TCP (6), length 28)
    10.1.2.3 > 10.9.8.7: tcp
	0x0000:  0209 0807 0605 0201 0203 0405 0800 4500  ..............E.
	0x0010:  001c 003f 2004 4006 3c86 0a01 0203 0a09  ...?..@.<.......
	0x0020:  0807 206e 6973 6920 6469                 ...nisi.di
IP (tos 0x0, ttl 64, id 56, offset 104, flags [+], proto TCP (6), length 28)
    10.1.2.3 > 10.9.8.7: tcp
	0x0000:  0209 0807 0605 0201 0203 0405 0800 4500  ..............E.
	0x0010:  001c 0038 200d 4006 3c84 0a01 0203 0a09  ...8..@.<.......
	0x0020:  0807 7465 7475 722c 2074                 ..tetur,.t
IP (tos 0x0, ttl 64, id 27, offset 472, flags [+], proto TCP (6), length 28)
    10.1.2.3 > 10.9.8.7: tcp
	0x0000:  0209 0807 0605 0201 0203 0405 0800 4500  ..............E.
	0x0010:  001c 001b 203b 4006 3c73 0a01 0203 0a09  .....;@.<s......
	0x0020:  0807 6c2c 2061 6c69 7175                 ..l,.aliqu
IP (tos 0x0, ttl 64, id 86, offset 192, flags [+], proto TCP (6), length 28)
    10.1.2.3 > 10.9.8.7: tcp
	0x0000:  0209 0807 0605 0201 0203 0405 0800 4500  ..............E.
	0x0010:  001c 0056 2018 4006 3c5b 0a01 0203 0a09  ...V..@.<[......
	0x0020:  0807 6565 7420 6c69 6265                 ..eet.libe
IP (tos 0x0, ttl 64, id 85, offset 432, flags [+], proto TCP (6), length 28)
    10.1.2.3 > 10.9.8.7: tcp
	0x0000:  0209 0807 0605 0201 0203 0405 0800 4500  ..............E.
	0x0010:  001c 0055 2036 4006 3c3e 0a01 0203 0a09  ...U.6@.<>......
	0x0020:  0807 7320 636f 6e67 7565                 ..s.congue
IP (tos 0x0, ttl 64, id 16, offset 264, flags [+], proto TCP (6), length 28)
    10.1.2.3 > 10.9.8.7: tcp
	0x0000:  0209 0807 0605 0201 0203 0405 0800 4500  ..............E.
	0x0010:  001c 0010 2021 4006 3c98 0a01 0203 0a09  .....!@.<.......
	0x0020:  0807 6461 2c20 6d6f 6c6c                 ..da,.moll
IP (tos 0x0, ttl 64, id 122, offset 384, flags [+], proto TCP (6), length 28)
    10.1.2.3 > 10.9.8.7: tcp
	0x0000:  0209 0807 0605 0201 0203 0405 0800 4500  ..............E.
	0x0010:  001c 007a 2030 4006 3c1f 0a01 0203 0a09  ...z.0@.<.......
	0x0020:  0807 6e67 2e20 4e75 6e63                 ..ng..Nunc
IP (tos 0x0, ttl 64, id 56, offset 480, flags [+], proto TCP (6), length 28)
    10.1.2.3 > 10.9.8.7: tcp
	0x0000:  0209 0807 0605 0201 0203 0405 0800 4500  ..............E.
	0x0010:  001c 0038 203c 4006 3c55 0a01 0203 0a09  ...8.<@.<U......
	0x0020:  0807 7573 2e20 4e61 6d20                 ..us..Nam.
IP (tos 0x0, ttl 64, id 82, offset 448, flags [+], proto TCP (6), length 28)
    10.1.2.3 > 10.9.8.7: tcp
	0x0000:  0209 0807 0605 0201 0203 0405 0800 4500  ..............E.
	0x0010:  001c 0052 2038 4006 3c3f 0a01 0203 0a09  ...R.8@.<?......
	0x0020:  0807 6962 656e 6475 6d20                 ..ibendum.
IP (tos 0x0, ttl 64, id 40, offset 344, flags [+], proto TCP (6), length 28)
    10.1.2.3 > 10.9.8.7: tcp
	0x0000:  0209 0807 0605 0201 0203 0405 0800 4500  ..............E.
	0x0010:  001c 0028 202b 4006 3c76 0a01 0203 0a09  ...(.+@.<v......
	0x0020:  0807 6475 6e74 2065 6e69                 ..dunt.eni
IP (tos 0x0, ttl 64, id 130, offset 424, flags [+], proto TCP (6), length 28)
    10.1.2.3 > 10.9.8.7: tcp
	0x0000:  0209 0807 0605 0201 0203 0405 0800 4500  ..............E.
	0x0010:  001c 0082 2035 4006 3c12 0a01 0203 0a09  .....5@.<.......
	0x0020:  0807 7469 7175 6520 756c                 ..tique.ul
IP (tos 0x0, ttl 64, id 30, offset 424, flags [+], proto TCP (6), length 28)
    10.1.2.3 > 10.9.8.7: tcp
	0x0000:  0209 0807 0605 0201 0203 0405 0800 4500  ..............E.
	0x0010:  001c 001e 2035 4006 3c76 0a01 0203 0a09  .....5@.<v......
	0x0020:  0807 6973 2065 726f 7320                 ..is.eros.
IP (tos 0x0, ttl 64, id 79, offset 408, flags [+], proto TCP (6), length 28)
    10.1.2.3 > 10.9.8.7: tcp
	0x0000:  0209 0807 0605 0201 0203 0405 0800 4500  ..............E.
	0x0010:  001c 004f 2033 4006 3c47 0a01 0203 0a09  ...O.3@.<G......
	0x0020:  0807 2061 206e 756c 6c61                 ...a.nulla
IP (tos 0x0, ttl 64, id 18, offset 304, flags [+], proto TCP (6), length 28)
    10.1.2.3 > 10.9.8.7: tcp
	0x0000:  0209 0807 0605 0201 0203 0405 0800 4500  ..............E.
	0x0010:  001c 0012 2026 4006 3c91 0a01 0203 0a09  .....&@.<.......
	0x0020:  0807 6163 696c 6973 6973                 ..acilisis
IP (tos 0x0, ttl 64, id 57, offset 440, flags [+], proto TCP (6), length 28)
    10.1.2.3 > 10.9.8.7: tcp
	0x0000:  0209 0807 0605 0201 0203 0405 0800 4500  ..............E.
	0x0010:  001c 0039 2037 4006 3c59 0a01 0203 0a09  ...9.7@.<Y......
	0x0020:  0807 7573 2071 7561 6d2c                 ..us.quam,
IP (tos 0x0, ttl 64, id 124, offset 376, flags [+], proto TCP (6), length 28)
    10.1.2.3 > 10.9.8.7: tcp
	0x0000:  0209 0807 0605 0201 0203 0405 0800 4500  ..............E.
	0x0010:  001c 007c 202f 4006 3c1e 0a01 0203 0a09  ...|./@.<.......
	0x0020:  0807 7469 2073 6f63 696f                 ..ti.socio
IP (tos 0x0, ttl 64, id 86, offset 448, flags [+], proto TCP (6), length 28)
    10.1.2.3 > 10.9.8.7: tcp
	0x0000:  0209 0807 0605 0201 0203 0405 0800 4500  ..............E.
	0x0010:  001c 0056 2038 4006 3c3b 0a01 0203 0a09  ...V.8@.<;......
	0x0020:  0807 6f72 2064 6f6c 6f72                 ..or.dolor
IP (tos 0x0, ttl 64, id 96, offset 344, flags [+], proto TCP (6), length 28)
    10.1.2.3 > 10.9.8.7: tcp
	0x0000:  0209 0807 0605 0201 0203 0405 0800 4500  ..............E.
	0x0010:  001c 0060 202b 4006 3c3e 0a01 0203 0a09  ...`.+@.<>......
	0x0020:  0807 7075 7320 636f 6e67                 ..pus.cong
IP (tos 0x0, ttl 64, id 86, offset 168, flags [+], proto TCP (6), length 28)
    10.1.2.3 > 10.9.8.7: tcp
	0x0000:  0209 0807 0605 0201 0203 0405 0800 4500  ..............E.
	0x0010:  001c 0056 2015 4006 3c5e 0a01 0203 0a09  ...V..@.<^......
	0x0020:  0807 7573 2064 6963 7475                 ..us.dictu
IP (tos 0x0, ttl 64, id 26, offset 336, flags [+], proto TCP (6), length 28)
    10.1.2.3 > 10.9.8.7: tcp
	0x0000:  0209 0807 0605 0201 0203 0405 0800 4500  ..............E.
	0x0010:  001c 001a 202a 4006 3c85 0a01 0203 0a09  .....*@.<.......
	0x0020:  0807 6120 6164 6970 6973                 ..a.adipis
IP (tos 0x0, ttl 64, id 90, offset 8, flags [+], proto TCP (6), length 28)
    10.1.2.3 > 10.9.8.7: tcp
	0x0000:  0209 0807 0605 0201 0203 0405 0800 4500  ..............E.
	0x0010:  001c 005a 2001 4006 3c6e 0a01 0203 0a09  ...Z..@.<n......
	0x0020:  0807 0000 0002 5010 2000                 ......P...
IP (tos 0x0, ttl 64, id 87, offset 408, flags [+], proto TCP (6), length 28)
    10.1.2.3 > 10.9.8.7: tcp
	0x0000:  0209 0807 0605 0201 0203 0405 0800 4500  ..............E.
	0x0010:  001c 0057 2033 4006 3c3f 0a01 0203 0a09  ...W.3@.<?......
	0x0020:  0807 2069 6d70 6572 6469                 ...imperdi
IP (tos 0x0, ttl 64, id 126, offset 168, flags [+], proto TCP (6), length 28)
    10.1.2.3 > 10.9.8.7: tcp
	0x0000:  0209 0807 0605 0201 0203 0405 0800 4500  ..............E.
	0x0010:  001c 007e 2015 4006 3c36 0a01 0203 0a09  ...~..@.<6......
	0x0020:  0807 726f 7320 6665 7567                 ..ros.feug
IP (tos 0x0, ttl 64, id 118, offset 448, flags [+], proto TCP (6), length 28)
    10.1.2.3 > 10.9.8.7: tcp
	0x0000:  0209 0807 0605 0201 0203 0405 0800 4500  ..............E.
	0x0010:  001c 0076 2038 4006 3c1b 0a01 0203 0a09  ...v.8@.<.......
	0x0020:  0807 6564 2066 6575 6769                 ..ed.feugi
IP (tos 0x0, ttl 64, id 77, offset 112, flags [+], proto TCP (6), length 28)
    10.1.2.3 > 10.9.8.7: tcp
	0x0000:  0209 0807 0605 0201 0203 0405 0800 4500  ..............E.
	0x0010:  001c 004d 200e 4006 3c6e 0a01 0203 0a09  ...M..@.<n......
	0x0020:  0807 7320 6964 2066 656c                 ..s.id.fel
IP (tos 0x0, ttl 64, id 71, offset 120, flags [+], proto TCP (6), length 28)
    10.1.2.3 > 10.9.8.7: tcp
	0x0000:  0209 0807 0605 0201 0203 0405 0800 4500  ..............E.
	0x0010:  001c 0047 200f 4006 3c73 0a01 0203 0a09  ...G..@.<s......
	0x0020:  0807 7475 7270 6973 2065                 ..turpis.e
IP (tos 0x0, ttl 64, id 58, offset 312, flags [+], proto TCP (6), length 28)
    10.1.2.3 > 10.9.8.7: tcp
	0x0000:  0209 0807 0605 0201 0203 0405 0800 4500  ..............E.
	0x0010:  001c 003a 2027 4006 3c68 0a01 0203 0a09  ...:.'@.<h......
	0x0020:  0807 2065 6c65 6d65 6e74                 ...element
IP (tos 0x0, ttl 64, id 107, offset 168, flags [+], proto TCP (6), length 28)
    10.1.2.3 > 10.9.8.7: tcp
	0x0000:  0209 0807 0605 0201 0203 0405 0800 4500  ..............E.
	0x0010:  001c 006b 2015 4006 3c49 0a01 0203 0a09  ...k..@.<I......
	0x0020:  0807 656c 6c75 732c 2075                 ..ellus,.u
IP (tos 0x0, ttl 64, id 54, offset 112, flags [+], proto TCP (6), length 28)
    10.1.2.3 > 10.9.8.7: tcp
	0x0000:  0209 0807 0605 0201 0203 0405 0800 4500  ..............E.
	0x0010:  001c 0036 200e 4006 3c85 0a01 0203 0a09  ...6..@.<.......
	0x0020:  0807 616d 2063 6f6e 6469                 ..am.condi
IP (tos 0x0, ttl 64, id 26, offset 256, flags [+], proto TCP (6), length 28)
    10.1.2.3 > 10.9.8.7: tcp
	0x0000:  0209 0807 0605 0201 0203 0405 0800 4500  ..............E.
	0x0010:  001c 001a 2020 4006 3c8f 0a01 0203 0a09  ......@.<.......
	0x0020:  0807 706f 7274 7469 746f                 ..porttito
IP (tos 0x0, ttl 64, id 8, offset 472, flags [+], proto TCP (6), length 28)
    10.1.2.3 > 10.9.8.7: tcp
	0x0000:  0209 0807 0605 0201 0203 0405 0800 4500  ..............E.
	0x0010:  001c 0008 203b 4006 3c86 0a01 0203 0a09  .....;@.<.......
	0x0020:  0807 726f 696e 206d 6920                 ..roin.mi.
IP (tos 0x0, ttl 64, id 54, offset 40, flags [+], proto TCP (6), length 28)
    10.1.2.3 > 10.9.8.7: tcp
	0x0000:  0209 0807 0605 0201 0203 0405 0800 4500  ..............E.
	0x0010:  001c 0036 2005 4006 3c8e 0a01 0203 0a09  ...6..@.<.......
	0x0020:  0807 656d 2073 6564 206c                 ..em.sed.l
IP (tos 0x0, ttl 64, id 87, offset 288, flags [+], proto TCP (6), length 28)
    10.1.2.3 > 10.9.8.7: tcp
	0x0000:  0209 0807 0605 0201 0203 0405 0800 4500  ..............E.
	0x0010:  001c 0057 2024 4006 3c4e 0a01 0203 0a09  ...W.$@.<N......
	0x0020:  0807 682e 2046 7573 6365                 ..h..Fusce
IP (tos 0x0, ttl 64, id 10, offset 496, flags [+], proto TCP (6), length 28)
    10.1.2.3 > 10.9.8.7: tcp
	0x0000:  0209 0807 0605 0201 0203 0405 0800 4500  ..............E.
	0x0010:  001c 000a 203e 4006 3c81 0a01 0203 0a09  .....>@.<.......
	0x0020:  0807 6974 2c20 6567 6574                 ..it,.eget
IP (tos 0x0, ttl 64, id 33, offset 488, flags [+], proto TCP (6), length 28)
    10.1.2.3 > 10.9.8.7: tcp
	0x0000:  0209 0807 0605 0201 0203 0405 0800 4500  ..............E.
	0x0010:  001c 0021 203d 4006 3c6b 0a01 0203 0a09  ...!.=@.<k......
	0x0020:  0807 2064 6170 6962 7573                 ...dapibus
IP (tos 0x0, ttl 64, id 35, offset 512, flags [+], proto TCP (6), length 28)
    10.1.2.3 > 10.9.8.7: tcp
	0x0000:  0209 0807 0605 0201 0203 0405 0800 4500  ..............E.
	0x0010:  001c 0023 2040 4006 3c66 0a01 0203 0a09  ...#.@@.<f......
	0x0020:  0807 2066 6163 696c 6973                 ...facilis
IP (tos 0x0, ttl 64, id 117, offset 272, flags [+], proto TCP (6), length 28)
    10.1.2.3 > 10.9.8.7: tcp
	0x0000:  0209 0807 0605 0201 0203 0405 0800 4500  ..............E.
	0x0010:  001c 0075 2022 4006 3c32 0a01 0203 0a09  ...u."@.<2......
	0x0020:  0807 6973 2065 7520 636f                 ..is.eu.co
IP (tos 0x0, ttl 64, id 99, offset 136, flags [+], proto TCP (6), length 28)
    10.1.2.3 > 10.9.8.7: tcp
	0x0000:  0209 0807 0605 0201 0203 0405 0800 4500  ..............E.
	0x0010:  001c 0063 2011 4006 3c55 0a01 0203 0a09  ...c..@.<U......
	0x0020:  0807 6c6c 7573 2075 7420                 ..llus.ut.
IP (tos 0x0, ttl 64, id 76, offset 416, flags [+], proto TCP (6), length 28)
    10.1.2.3 > 10.9.8.7: tcp
	0x0000:  0209 0807 0605 0201 0203 0405 0800 4500  ..............E.
	0x0010:  001c 004c 2034 4006 3c49 0a01 0203 0a09  ...L.4@.<I......
	0x0020:  0807 7475 6d20 6375 7273                 ..tum.curs
IP (tos 0x0, ttl 64, id 37, offset 464, flags [+], proto TCP (6), length 28)
    10.1.2.3 > 10.9.8.7: tcp
	0x0000:  0209 0807 0605 0201 0203 0405 0800 4500  ..............E.
	0x0010:  001c 0025 203a 4006 3c6a 0a01 0203 0a09  ...%.:@.<j......
	0x0020:  0807 2070 6f73 7565 7265                 ...posuere
IP (tos 0x0, ttl 64, id 87, offset 304, flags [+], proto TCP (6), length 28)
    10.1.2.3 > 10.9.8.7: tcp
	0x0000:  0209 0807 0605 0201 0203 0405 0800 4500  ..............E.
	0x0010:  001c 0057 2026 4006 3c4c 0a01 0203 0a09  ...W.&@.<L......
	0x0020:  0807 7261 742c 2070 6f72                 ..rat,.por
IP (tos 0x0, ttl 64, id 33, offset 120, flags [+], proto TCP (6), length 28)
    10.1.2.3 > 10.9.8.7: tcp
	0x0000:  0209 0807 0605 0201 0203 0405 0800 4500  ..............E.
	0x0010:  001c 0021 200f 4006 3c99 0a01 0203 0a09  ...!..@.<.......
	0x0020:  0807 6375 732e 2020 5068                 ..cus...Ph
IP (tos 0x0, ttl 64, id 23, offset 392, flags [+], proto TCP (6), length 28)
    10.1.2.3 > 10.9.8.7: tcp
	0x0000:  0209 0807 0605 0201 0203 0405 0800 4500  ..............E.
	0x0010:  001c 0017 2031 4006 3c81 0a01 0203 0a09  .....1@.<.......
	0x0020:  0807 7075 6c76 696e 6172                 ..pulvinar
IP (tos 0x0, ttl 64, id 128, offset 440, flags [+], proto TCP (6), length 28)
    10.1.2.3 > 10.9.8.7: tcp
	0x0000:  0209 0807 0605 0201 0203 0405 0800 4500  ..............E.
	0x0010:  001c 0080 2037 4006 3c12 0a01 0203 0a09  .....7@.<.......
	0x0020:  0807 6e65 6320 7469 6e63                 ..nec.tinc
IP (tos 0x0, ttl 64, id 82, offset 104, flags [+], proto TCP (6), length 28)
    10.1.2.3 > 10.9.8.7: tcp
	0x0000:  0209 0807 0605 0201 0203 0405 0800 4500  ..............E.
	0x0010:  001c 0052 200d 4006 3c6a 0a01 0203 0a09  ...R..@.<j......
	0x0020:  0807 7420 6574 2c20 6665                 ..t.et,.fe
IP (tos 0x0, ttl 64, id 95, offset 168, flags [+], proto TCP (6), length 28)
    10.1.2.3 > 10.9.8.7: tcp
	0x0000:  0209 0807 0605 0201 0203 0405 0800 4500  ..............E.
	0x0010:  001c 005f 2015 4006 3c55 0a01 0203 0a09  ..._..@.<U......
	0x0020:  0807 7665 6c69 7420 6c65                 ..velit.le
IP (tos 0x0, ttl 64, id 62, offset 176, flags [+], proto TCP (6), length 28)
    10.1.2.3 > 10.9.8.7: tcp
	0x0000:  0209 0807 0605 0201 0203 0405 0800 4500  ..............E.
	0x0010:  001c 003e 2016 4006 3c75 0a01 0203 0a09  ...>..@.<u......
	0x0020:  0807 6520 7361 7069 656e                 ..e.sapien
IP (tos 0x0, ttl 64, id 50, offset 64, flags [+], proto TCP (6), length 28)
    10.1.2.3 > 10.9.8.7: tcp
	0x0000:  0209 0807 0605 0201 0203 0405 0800 4500  ..............E.
	0x0010:  001c 0032 2008 4006 3c8f 0a01 0203 0a09  ...2..@.<.......
	0x0020:  0807 6775 6520 7361 7069                 ..gue.sapi
IP (tos 0x0, ttl 64, id 39, offset 128, flags [+], proto TCP (6), length 28)
    10.1.2.3 > 10.9.8.7: tcp
	0x0000:  0209 0807 0605 0201 0203 0405 0800 4500  ..............E.
	0x0010:  001c 0027 2010 4006 3c92 0a01 0203 0a09  ...'..@.<.......
	0x0020:  0807 7374 6962 756c 756d                 ..stibulum
IP (tos 0x0, ttl 64, id 69, offset 264, flags [+], proto TCP (6), length 28)
    10.1.2.3 > 10.9.8.7: tcp
	0x0000:  0209 0807 0605 0201 0203 0405 0800 4500  ..............E.
	0x0010:  001c 0045 2021 4006 3c63 0a01 0203 0a09  ...E.!@.<c......
	0x0020:  0807 7465 6d70 7573 2076                 ..tempus.v
IP (tos 0x0, ttl 64, id 8, offset 280, flags [+], proto TCP (6), length 28)
    10.1.2.3 > 10.9.8.7: tcp
	0x0000:  0209 0807 0605 0201 0203 0405 0800 4500  ..............E.
	0x0010:  001c 0008 2023 4006 3c9e 0a01 0203 0a09  .....#@.<.......
	0x0020:  0807 626f 7274 6973 206e                 ..bortis.n
IP (tos 0x0, ttl 64, id 100, offset 24, flags [+], proto TCP (6), length 28)
    10.1.2.3 > 10.9.8.7: tcp
	0x0000:  0209 0807 0605 0201 0203 0405 0800 4500  ..............E.
	0x0010:  001c 0064 2003 4006 3c62 0a01 0203 0a09  ...d..@.<b......
	0x0020:  0807 656e 7420 6d6f 6e74                 ..ent.mont
IP (tos 0x0, ttl 64, id 32, offset 336, flags [+], proto TCP (6), length 28)
    10.1.2.3 > 10.9.8.7: tcp
	0x0000:  0209 0807 0605 0201 0203 0405 0800 4500  ..............E.
	0x0010:  001c 0020 202a 4006 3c7f 0a01 0203 0a09  .....*@.<.......
	0x0020:  0807 2e20 4574 6961 6d20                 ....Etiam.
IP (tos 0x0, ttl 64, id 23, offset 120, flags [+], proto TCP (6), length 28)
    10.1.2.3 > 10.9.8.7: tcp
	0x0000:  0209 0807 0605 0201 0203 0405 0800 4500  ..............E.
	0x0010:  001c 0017 200f 4006 3ca3 0a01 0203 0a09  ......@.<.......
	0x0020:  0807 6769 7474 6973 2075                 ..gittis.u
IP (tos 0x0, ttl 64, id 51, offset 184, flags [+], proto TCP (6), length 28)
    10.1.2.3 > 10.9.8.7: tcp
	0x0000:  0209 0807 0605 0201 0203 0405 0800 4500  ..............E.
	0x0010:  001c 0033 2017 4006 3c7f 0a01 0203 0a09  ...3..@.<.......
	0x0020:  0807 6e65 6320 6e65 7175                 ..nec.nequ
IP (tos 0x0, ttl 64, id 25, offset 376, flags [+], proto TCP (6), length 28)
    10.1.2.3 > 10.9.8.7: tcp
	0x0000:  0209 0807 0605 0201 0203 0405 0800 4500  ..............E.
	0x0010:  001c 0019 202f 4006 3c81 0a01 0203 0a09  ...../@.<.......
	0x0020:  0807 6175 6374 6f72 2063                 ..auctor.c
IP (tos 0x0, ttl 64, id 9, offset 128, flags [+], proto TCP (6), length 28)
    10.1.2.3 > 10.9.8.7: tcp
	0x0000:  0209 0807 0605 0201 0203 0405 0800 4500  ..............E.
	0x0010:  001c 0009 2010 4006 3cb0 0a01 0203 0a09  ......@.<.......
	0x0020:  0807 5072 6165 7365 6e74                 ..Praesent
IP (tos 0x0, ttl 64, id 11, offset 8, flags [+], proto TCP (6), length 28)
    10.1.2.3 > 10.9.8.7: tcp
	0x0000:  0209 0807 0605 0201 0203 0405 0800 4500  ..............E.
	0x0010:  001c 000b 2001 4006 3cbd 0a01 0203 0a09  ......@.<.......
	0x0020:  0807 0000 0002 5010 2000                 ......P...
IP (tos 0x0, ttl 64, id 88, offset 88, flags [+], proto TCP (6), length 28)
    10.1.2.3 > 10.9.8.7: tcp
	0x0000:  0209 0807 0605 0201 0203 0405 0800 4500  ..............E.
	0x0010:  001c 0058 200b 4006 3c66 0a01 0203 0a09  ...X..@.<f......
	0x0020:  0807 6574 206c 656f 2075                 ..et.leo.u
IP (tos 0x0, ttl 64, id 34, offset 80, flags [+], proto TCP (6), length 28)
    10.1.2.3 > 10.9.8.7: tcp
	0x0000:  0209 0807 0605 0201 0203 0405 0800 4500  ..............E.
	0x0010:  001c 0022 200a 4006 3c9d 0a01 0203 0a09  ..."..@.<.......
	0x0020:  0807 7371 7565 2063 6f6e                 ..sque.con
IP (tos 0x0, ttl 64, id 104, offset 88, flags [+], proto TCP (6), length 28)
    10.1.2.3 > 10.9.8.7: tcp
	0x0000:  0209 0807 0605 0201 0203 0405 0800 4500  ..............E.
	0x0010:  001c 0068 200b 4006 3c56 0a01 0203 0a09  ...h..@.<V......
	0x0020:  0807 2061 6469 7069 7363                 ...adipisc
IP (tos 0x0, ttl 64, id 14, offset 312, flags [+], proto TCP (6), length 28)
    10.1.2.3 > 10.9.8.7: tcp
	0x0000:  0209 0807 0605 0201 0203 0405 0800 4500  ..............E.
	0x0010:  001c 000e 2027 4006 3c94 0a01 0203 0a09  .....'@.<.......
	0x0020:  0807 732e 2049 6e20 636f                 ..s..In.co
IP (tos 0x0, ttl 64, id 16, offset 272, flags [+], proto TCP (6), length 28)
    10.1.2.3 > 10.9.8.7: tcp
	0x0000:  0209 0807 0605 0201 0203 0405 0800 4500  ..............E.
	0x0010:  001c 0010 2022 4006 3c97 0a01 0203 0a09  ....."@.<.......
	0x0020:  0807 6973 2065 6765 7420                 ..is.eget.
IP (tos 0x0, ttl 64, id 92, offset 312, flags [+], proto TCP (6), length 28)
    10.1.2.3 > 10.9.8.7: tcp
	0x0000:  0209 0807 0605 0201 0203 0405 0800 4500  ..............E.
	0x0010:  001c 005c 2027 4006 3c46 0a01 0203 0a09  ...\.'@.<F......
	0x0020:  0807 7565 2073 656e 6563                 ..ue.senec
IP (tos 0x0, ttl 64, id 83, offset 464, flags [+], proto TCP (6), length 28)
    10.1.2.3 > 10.9.8.7: tcp
	0x0000:  0209 0807 0605 0201 0203 0405 0800 4500  ..............E.
	0x0010:  001c 0053 203a 4006 3c3c 0a01 0203 0a09  ...S.:@.<<......
	0x0020:  0807 7075 6c76 696e 6172                 ..pulvinar
IP (tos 0x0, ttl 64, id 89, offset 224, flags [+], proto TCP (6), length 28)
    10.1.2.3 > 10.9.8.7: tcp
	0x0000:  0209 0807 0605 0201 0203 0405 0800 4500  ..............E.
	0x0010:  001c 0059 201c 4006 3c54 0a01 0203 0a09  ...Y..@.<T......
	0x0020:  0807 6c6c 656e 7465 7371                 ..llentesq
IP (tos 0x0, ttl 64, id 108, offset 360, flags [+], proto TCP (6), length 28)
    10.1.2.3 > 10.9.8.7: tcp
	0x0000:  0209 0807 0605 0201 0203 0405 0800 4500  ..............E.
	0x0010:  001c 006c 202d 4006 3c30 0a01 0203 0a09  ...l.-@.<0......
	0x0020:  0807 6375 6d73 616e 2062                 ..cumsan.b
IP (tos 0x0, ttl 64, id 24, offset 32, flags [+], proto TCP (6), length 28)
    10.1.2.3 > 10.9.8.7: tcp
	0x0000:  0209 0807 0605 0201 0203 0405 0800 4500  ..............E.
	0x0010:  001c 0018 2004 4006 3cad 0a01 0203 0a09  ......@.<.......
	0x0020:  0807 7369 2e20 4d6f 7262                 ..si..Morb
IP (tos 0x0, ttl 64, id 44, offset 240, flags [+], proto TCP (6), length 28)
    10.1.2.3 > 10.9.8.7: tcp
	0x0000:  0209 0807 0605 0201 0203 0405 0800 4500  ..............E.
	0x0010:  001c 002c 201e 4006 3c7f 0a01 0203 0a09  ...,..@.<.......
	0x0020:  0807 2053 7573 7065 6e64                 ...Suspend
IP (tos 0x0, ttl 64, id 82, offset 520, flags [+], proto TCP (6), length 28)
    10.1.2.3 > 10.9.8.7: tcp
	0x0000:  0209 0807 0605 0201 0203 0405 0800 4500  ..............E.
	0x0010:  001c 0052 2041 4006 3c36 0a01 0203 0a09  ...R.A@.<6......
	0x0020:  0807 2061 206c 6967 756c                 ...a.ligul
IP (tos 0x0, ttl 64, id 88, offset 48, flags [+], proto TCP (6), length 28)
    10.1.2.3 > 10.9.8.7: tcp
	0x0000:  0209 0807 0605 0201 0203 0405 0800 4500  ..............E.
	0x0010:  001c 0058 2006 4006 3c6b 0a01 0203 0a09  ...X..@.<k......
	0x0020:  0807 6962 7573 2061 2076                 ..ibus.a.v
IP (tos 0x0, ttl 64, id 77, offset 64, flags [+], proto TCP (6), length 28)
    10.1.2.3 > 10.9.8.7: tcp
	0x0000:  0209 0807 0605 0201 0203 0405 0800 4500  ..............E.
	0x0010:  001c 004d 2008 4006 3c74 0a01 0203 0a09  ...M..@.<t......
	0x0020:  0807 2061 7420 6e69 7369                 ...at.nisi
IP (tos 0x0, ttl 64, id 71, offset 408, flags [+], proto TCP (6), length 28)
    10.1.2.3 > 10.9.8.7: tcp
	0x0000:  0209 0807 0605 0201 0203 0405 0800 4500  ..............E.
	0x0010:  001c 0047 2033 4006 3c4f 0a01 0203 0a09  ...G.3@.<O......
	0x0020:  0807 696e 6769 6c6c 612c                 ..ingilla,
IP (tos 0x0, ttl 64, id 78, offset 120, flags [+], proto TCP (6), length 28)
    10.1.2.3 > 10.9.8.7: tcp
	0x0000:  0209 0807 0605 0201 0203 0405 0800 4500  ..............E.
	0x0010:  001c 004e 200f 4006 3c6c 0a01 0203 0a09  ...N..@.<l......
	0x0020:  0807 6e69 7373 696d 2073                 ..nissim.s
IP (tos 0x0, ttl 64, id 39, offset 120, flags [+], proto TCP (6), length 28)
    10.1.2.3 > 10.9.8.7: tcp
	0x0000:  0209 0807 0605 0201 0203 0405 0800 4500  ..............E.
	0x0010:  001c 0027 200f 4006 3c93 0a01 0203 0a09  ...'..@.<.......
	0x0020:  0807 7270 6973 2c20 7665                 ..rpis,.ve
IP (tos 0x0, ttl 64, id 5, offset 120, flags [+], proto TCP (6), length 28)
    10.1.2.3 > 10.9.8.7: tcp
	0x0000:  0209 0807 0605 0201 0203 0405 0800 4500  ..............E.
	0x0010:  001c 0005 200f 4006 3cb5 0a01 0203 0a09  ......@.<.......
	0x0020:  0807 6c2c 2073 656d 7065                 ..l,.sempe
IP (tos 0x0, ttl 64, id 35, offset 456, flags [+], proto TCP (6), length 28)
    10.1.2.3 > 10.9.8.7: tcp
	0x0000:  0209 0807 0605 0201 0203 0405 0800 4500  ..............E.
	0x0010:  001c 0023 2039 4006 3c6d 0a01 0203 0a09  ...#.9@.<m......
	0x0020:  0807 6e74 756d 2075 726e                 ..ntum.urn
IP (tos 0x0, ttl 64, id 7, offset 440, flags [+], proto TCP (6), length 28)
    10.1.2.3 > 10.9.8.7: tcp
	0x0000:  0209 0807 0605 0201 0203 0405 0800 4500  ..............E.
	0x0010:  001c 0007 2037 4006 3c8b 0a01 0203 0a09  .....7@.<.......
	0x0020:  0807 6772 6176 6964 6120                 ..gravida.
IP (tos 0x0, ttl 64, id 16, offset 224, flags [+], proto TCP (6), length 28)
    10.1.2.3 > 10.9.8.7: tcp
	0x0000:  0209 0807 0605 0201 0203 0405 0800 4500  ..............E.
	0x0010:  001c 0010 201c 4006 3c9d 0a01 0203 0a09  ......@.<.......
	0x0020:  0807 6572 6f20 6175 6775                 ..ero.augu
IP (tos 0x0, ttl 64, id 3, offset 320, flags [+], proto TCP (6), length 28)
    10.1.2.3 > 10.9.8.7: tcp
	0x0000:  0209 0807 0605 0201 0203 0405 0800 4500  ..............E.
	0x0010:  001c 0003 2028 4006 3c9e 0a01 0203 0a09  .....(@.<.......
	0x0020:  0807 6573 7420 7065 6c6c                 ..est.pell
IP (tos 0x0, ttl 64, id 89, offset 528, flags [none], proto TCP (6), length 24)
    10.1.2.3 > 10.9.8.7: tcp
	0x0000:  0209 0807 0605 0201 0203 0405 0800 4500  ..............E.
	0x0010:  0018 0059 0042 4006 5c32 0a01 0203 0a09  ...Y.B@.\2......
	0x0020:  0807 732e 204e                           ..s..N
IP (tos 0x0, ttl 64, id 40, offset 488, flags [+], proto TCP (6), length 28)
    10.1.2.3 > 10.9.8.7: tcp
	0x0000:  0209 0807 0605 0201 0203 0405 0800 4500  ..............E.
	0x0010:  001c 0028 203d 4006 3c64 0a01 0203 0a09  ...(.=@.<d......
	0x0020:  0807 6d20 6d69 2c20 756c                 ..m.mi,.ul
IP (tos 0x0, ttl 64, id 105, offset 240, flags [+], proto TCP (6), length 28)
    10.1.2.3 > 10.9.8.7: tcp
	0x0000:  0209 0807 0605 0201 0203 0405 0800 4500  ..............E.
	0x0010:  001c 0069 201e 4006 3c42 0a01 0203 0a09  ...i..@.<B......
	0x0020:  0807 2065 6c65 6966 656e                 ...eleifen
IP (tos 0x0, ttl 64, id 127, offset 200, flags [+], proto TCP (6), length 28)
    10.1.2.3 > 10.9.8.7: tcp
	0x0000:  0209 0807 0605 0201 0203 0405 0800 4500  ..............E.
	0x0010:  001c 007f 2019 4006 3c31 0a01 0203 0a09  ......@.<1......
	0x0020:  0807 6574 2065 7420 6e69                 ..et.et.ni
IP (tos 0x0, ttl 64, id 98, offset 368, flags [+], proto TCP (6), length 28)
    10.1.2.3 > 10.9.8.7: tcp
	0x0000:  0209 0807 0605 0201 0203 0405 0800 4500  ..............E.
	0x0010:  001c 0062 202e 4006 3c39 0a01 0203 0a09  ...b..@.<9......
	0x0020:  0807 206c 6163 7573 2061                 ...lacus.a
IP (tos 0x0, ttl 64, id 36, offset 8, flags [+], proto TCP (6), length 28)
    10.1.2.3 > 10.9.8.7: tcp
	0x0000:  0209 0807 0605 0201 0203 0405 0800 4500  ..............E.
	0x0010:  001c 0024 2001 4006 3ca4 0a01 0203 0a09  ...$..@.<.......
	0x0020:  0807 0000 0002 5010 2000                 ......P...
IP (tos 0x0, ttl 64, id 17, offset 448, flags [+], proto TCP (6), length 28)
    10.1.2.3 > 10.9.8.7: tcp
	0x0000:  0209 0807 0605 0201 0203 0405 0800 4500  ..............E.
	0x0010:  001c 0011 2038 4006 3c80 0a01 0203 0a09  .....8@.<.......
	0x0020:  0807 6769 7474 6973 2e20                 ..gittis..
IP (tos 0x0, ttl 64, id 41, offset 392, flags [+], proto TCP (6), length 28)
    10.1.2.3 > 10.9.8.7: tcp
	0x0000:  0209 0807 0605 0201 0203 0405 0800 4500  ..............E.
	0x0010:  001c 0029 2031 4006 3c6f 0a01 0203 0a09  ...).1@.<o......
	0x0020:  0807 656d 2c20 7669 7461                 ..em,.vita
IP (tos 0x0, ttl 64, id 94, offset 200, flags [+], proto TCP (6), length 28)
    10.1.2.3 > 10.9.8.7: tcp
	0x0000:  0209 0807 0605 0201 0203 0405 0800 4500  ..............E.
	0x0010:  001c 005e 2019 4006 3c52 0a01 0203 0a09  ...^..@.<R......
	0x0020:  0807 6974 2076 6974 6165                 ..it.vitae
IP (tos 0x0, ttl 64, id 42, offset 48, flags [+], proto TCP (6), length 28)
    10.1.2.3 > 10.9.8.7: tcp
	0x0000:  0209 0807 0605 0201 0203 0405 0800 4500  ..............E.
	0x0010:  001c 002a 2006 4006 3c99 0a01 0203 0a09  ...*..@.<.......
	0x0020:  0807 4d61 7572 6973 2064                 ..Mauris.d
IP (tos 0x0, ttl 64, id 76, offset 456, flags [+], proto TCP (6), length 28)
    10.1.2.3 > 10.9.8.7: tcp
	0x0000:  0209 0807 0605 0201 0203 0405 0800 4500  ..............E.
	0x0010:  001c 004c 2039 4006 3c44 0a01 0203 0a09  ...L.9@.<D......
	0x0020:  0807 656d 2063 6f6e 7661                 ..em.conva
IP (tos 0x0, ttl 64, id 44, offset 216, flags [+], proto TCP (6), length 28)
    10.1.2.3 > 10.9.8.7: tcp
	0x0000:  0209 0807 0605 0201 0203 0405 0800 4500  ..............E.
	0x0010:  001c 002c 201b 4006 3c82 0a01 0203 0a09  ...,..@.<.......
	0x0020:  0807 6f6c 6f72 2073 6365                 ..olor.sce
IP (tos 0x0, ttl 64, id 19, offset 152, flags [+], proto TCP (6), length 28)
    10.1.2.3 > 10.9.8.7: tcp
	0x0000:  0209 0807 0605 0201 0203 0405 0800 4500  ..............E.
	0x0010:  001c 0013 2013 4006 3ca3 0a01 0203 0a09  ......@.<.......
	0x0020:  0807 6775 6c61 2c20 7365                 ..gula,.se
IP (tos 0x0, ttl 64, id 8, offset 200, flags [+], proto TCP (6), length 28)
    10.1.2.3 > 10.9.8.7: tcp
	0x0000:  0209 0807 0605 0201 0203 0405 0800 4500  ..............E.
	0x0010:  001c 0008 2019 4006 3ca8 0a01 0203 0a09  ......@.<.......
	0x0020:  0807 6572 6520 6e6f 6e20                 ..ere.non.
IP (tos 0x0, ttl 64, id 74, offset 424, flags [+], proto TCP (6), length 28)
    10.1.2.3 > 10.9.8.7: tcp
	0x0000:  0209 0807 0605 0201 0203 0405 0800 4500  ..............E.
	0x0010:  001c 004a 2035 4006 3c4a 0a01 0203 0a09  ...J.5@.<J......
	0x0020:  0807 6120 6163 2065 7261                 ..a.ac.era
IP (tos 0x0, ttl 64, id 43, offset 8, flags [+], proto TCP (6), length 28)
    10.1.2.3 > 10.9.8.7: tcp
	0x0000:  0209 0807 0605 0201 0203 0405 0800 4500  ..............E.
	0x0010:  001c 002b 2001 4006 3c9d 0a01 0203 0a09  ...+..@.<.......
	0x0020:  0807 0000 0002 5010 2000                 ......P...
IP (tos 0x0, ttl 64, id 60, offset 0, flags [+], proto TCP (6), length 28)
    10.1.2.3.48620 > 10.9.8.7.8: [|tcp]
	0x0000:  0209 0807 0605 0201 0203 0405 0800 4500  ..............E.
	0x0010:  001c 003c 2000 4006 3c8d 0a01 0203 0a09  ...<..@.<.......
	0x0020:  0807 bdec 0008 0000 7202                 ........r.
IP (tos 0x0, ttl 64, id 21, offset 496, flags [+], proto TCP (6), length 28)
    10.1.2.3 > 10.9.8.7: tcp
	0x0000:  0209 0807 0605 0201 0203 0405 0800 4500  ..............E.
	0x0010:  001c 0015 203e 4006 3c76 0a01 0203 0a09  .....>@.<v......
	0x0020:  0807 7075 6c76 696e 6172                 ..pulvinar
IP (tos 0x0, ttl 64, id 107, offset 344, flags [+], proto TCP (6), length 28)
    10.1.2.3 > 10.9.8.7: tcp
	0x0000:  0209 0807 0605 0201 0203 0405 0800 4500  ..............E.
	0x0010:  001c 006b 202b 4006 3c33 0a01 0203 0a09  ...k.+@.<3......
	0x0020:  0807 6e6f 6e20 6d6f 6c65                 ..non.mole
IP (tos 0x0, ttl 64, id 29, offset 192, flags [+], proto TCP (6), length 28)
    10.1.2.3 > 10.9.8.7: tcp
	0x0000:  0209 0807 0605 0201 0203 0405 0800 4500  ..............E.
	0x0010:  001c 001d 2018 4006 3c94 0a01 0203 0a09  ......@.<.......
	0x0020:  0807 6d20 6575 206d 6174                 ..m.eu.mat
IP (tos 0x0, ttl 64, id 30, offset 160, flags [+], proto TCP (6), length 28)
    10.1.2.3 > 10.9.8.7: tcp
	0x0000:  0209 0807 0605 0201 0203 0405 0800 4500  ..............E.
	0x0010:  001c 001e 2014 4006 3c97 0a01 0203 0a09  ......@.<.......
	0x0020:  0807 2074 7269 7374 6971                 ...tristiq
IP (tos 0x0, ttl 64, id 32, offset 312, flags [+], proto TCP (6), length 28)
    10.1.2.3 > 10.9.8.7: tcp
	0x0000:  0209 0807 0605 0201 0203 0405 0800 4500  ..............E.
	0x0010:  001c 0020 2027 4006 3c82 0a01 0203 0a09  .....'@.<.......
	0x0020:  0807 2e20 4d6f 7262 6920                 ....Morbi.
IP (tos 0x0, ttl 64, id 121, offset 480, flags [+], proto TCP (6), length 28)
    10.1.2.3 > 10.9.8.7: tcp
	0x0000:  0209 0807 0605 0201 0203 0405 0800 4500  ..............E.
	0x0010:  001c 0079 203c 4006 3c14 0a01 0203 0a09  ...y.<@.<.......
	0x0020:  0807 6573 7469 6275 6c75                 ..estibulu
IP (tos 0x0, ttl 64, id 117, offset 288, flags [+], proto TCP (6), length 28)
    10.1.2.3 > 10.9.8.7: tcp
	0x0000:  0209 0807 0605 0201 0203 0405 0800 4500  ..............E.
	0x0010:  001c 0075 2024 4006 3c30 0a01 0203 0a09  ...u.$@.<0......
	0x0020:  0807 7220 7574 2c20 616c                 ..r.ut,.al
IP (tos 0x0, ttl 64, id 128, offset 488, flags [+], proto TCP (6), length 28)
    10.1.2.3 > 10.9.8.7: tcp
	0x0000:  0209 0807 0605 0201 0203 0405 0800 4500  ..............E.
	0x0010:  001c 0080 203d 4006 3c0c 0a01 0203 0a09  .....=@.<.......
	0x0020:  0807 7065 6c6c 656e 7465                 ..pellente
IP (tos 0x0, ttl 64, id 28, offset 392, flags [+], proto TCP (6), length 28)
    10.1.2.3 > 10.9.8.7: tcp
	0x0000:  0209 0807 0605 0201 0203 0405 0800 4500  ..............E.
	0x0010:  001c 001c 2031 4006 3c7c 0a01 0203 0a09  .....1@.<|......
	0x0020:  0807 2074 656d 7075 7320                 ...tempus.
IP (tos 0x0, ttl 64, id 106, offset 32, flags [+], proto TCP (6), length 28)
    10.1.2.3 > 10.9.8.7: tcp
	0x0000:  0209 0807 0605 0201 0203 0405 0800 4500  ..............E.
	0x0010:  001c 006a 2004 4006 3c5b 0a01 0203 0a09  ...j..@.<[......
	0x0020:  0807 6173 7361 2076 656c                 ..assa.vel
IP (tos 0x0, ttl 64, id 118, offset 88, flags [+], proto TCP (6), length 28)
    10.1.2.3 > 10.9.8.7: tcp
	0x0000:  0209 0807 0605 0201 0203 0405 0800 4500  ..............E.
	0x0010:  001c 0076 200b 4006 3c48 0a01 0203 0a09  ...v..@.<H......
	0x0020:  0807 7320 6c6f 7265 6d20                 ..s.lorem.
IP (tos 0x0, ttl 64, id 117, offset 464, flags [+], proto TCP (6), length 28)
    10.1.2.3 > 10.9.8.7: tcp
	0x0000:  0209 0807 0605 0201 0203 0405 0800 4500  ..............E.
	0x0010:  001c 0075 203a 4006 3c1a 0a01 0203 0a09  ...u.:@.<.......
	0x0020:  0807 2e20 4e75 6c6c 616d                 ....Nullam
IP (tos 0x0, ttl 64, id 17, offset 8, flags [+], proto TCP (6), length 28)
    10.1.2.3 > 10.9.8.7: tcp
	0x0000:  0209 0807 0605 0201 0203 0405 0800 4500  ..............E.
	0x0010:  001c 0011 2001 4006 3cb7 0a01 0203 0a09  ......@.<.......
	0x0020:  0807 0000 0002 5010 2000                 ......P...
IP (tos 0x0, ttl 64, id 62, offset 48, flags [+], proto TCP (6), length 28)
    10.1.2.3 > 10.9.8.7: tcp
	0x0000:  0209 0807 0605 0201 0203 0405 0800 4500  ..............E.
	0x0010:  001c 003e 2006 4006 3c85 0a01 0203 0a09  ...>..@.<.......
	0x0020:  0807 636f 6e76 616c 6c69                 ..convalli
IP (tos 0x0, ttl 64, id 88, offset 120, flags [+], proto TCP (6), length 28)
    10.1.2.3 > 10.9.8.7: tcp
	0x0000:  0209 0807 0605 0201 0203 0405 0800 4500  ..............E.
	0x0010:  001c 0058 200f 4006 3c62 0a01 0203 0a09  ...X..@.<b......
	0x0020:  0807 756d 206e 6f6e 2070                 ..um.non.p
IP (tos 0x0, ttl 64, id 23, offset 40, flags [+], proto TCP (6), length 28)
    10.1.2.3 > 10.9.8.7: tcp
	0x0000:  0209 0807 0605 0201 0203 0405 0800 4500  ..............E.
	0x0010:  001c 0017 2005 4006 3cad 0a01 0203 0a09  ......@.<.......
	0x0020:  0807 206f 726e 6172 6520                 ...ornare.
IP (tos 0x0, ttl 64, id 77, offset 384, flags [+], proto TCP (6), length 28)
    10.1.2.3 > 10.9.8.7: tcp
	0x0000:  0209 0807 0605 0201 0203 0405 0800 4500  ..............E.
	0x0010:  001c 004d 2030 4006 3c4c 0a01 0203 0a09  ...M.0@.<L......
	0x0020:  0807 6c20 7275 7472 756d                 ..l.rutrum
IP (tos 0x0, ttl 64, id 55, offset 424, flags [+], proto TCP (6), length 28)
    10.1.2.3 > 10.9.8.7: tcp
	0x0000:  0209 0807 0605 0201 0203 0405 0800 4500  ..............E.
	0x0010:  001c 0037 2035 4006 3c5d 0a01 0203 0a09  ...7.5@.<]......
	0x0020:  0807 6175 6369 6275 7320                 ..aucibus.
IP (tos 0x0, ttl 64, id 12, offset 360, flags [+], proto TCP (6), length 28)
    10.1.2.3 > 10.9.8.7: tcp
	0x0000:  0209 0807 0605 0201 0203 0405 0800 4500  ..............E.
	0x0010:  001c 000c 202d 4006 3c90 0a01 0203 0a09  .....-@.<.......
	0x0020:  0807 6c69 7369 7320 7475                 ..lisis.tu
IP (tos 0x0, ttl 64, id 107, offset 408, flags [+], proto TCP (6), length 28)
    10.1.2.3 > 10.9.8.7: tcp
	0x0000:  0209 0807 0605 0201 0203 0405 0800 4500  ..............E.
	0x0010:  001c 006b 2033 4006 3c2b 0a01 0203 0a09  ...k.3@.<+......
	0x0020:  0807 6c6c 6120 6a75 7374                 ..lla.just
IP (tos 0x0, ttl 64, id 29, offset 336, flags [+], proto TCP (6), length 28)
    10.1.2.3 > 10.9.8.7: tcp
	0x0000:  0209 0807 0605 0201 0203 0405 0800 4500  ..............E.
	0x0010:  001c 001d 202a 4006 3c82 0a01 0203 0a09  .....*@.<.......
	0x0020:  0807 742c 2063 6f6e 7365                 ..t,.conse
IP (tos 0x0, ttl 64, id 69, offset 376, flags [+], proto TCP (6), length 28)
    10.1.2.3 > 10.9.8.7: tcp
	0x0000:  0209 0807 0605 0201 0203 0405 0800 4500  ..............E.
	0x0010:  001c 0045 202f 4006 3c55 0a01 0203 0a09  ...E./@.<U......
	0x0020:  0807 6d20 616e 7465 2e20                 ..m.ante..
IP (tos 0x0, ttl 64, id 113, offset 456, flags [+], proto TCP (6), length 28)
    10.1.2.3 > 10.9.8.7: tcp
	0x0000:  0209 0807 0605 0201 0203 0405 0800 4500  ..............E.
	0x0010:  001c 0071 2039 4006 3c1f 0a01 0203 0a09  ...q.9@.<.......
	0x0020:  0807 6175 6775 652c 2065                 ..augue,.e
IP (tos 0x0, ttl 64, id 91, offset 152, flags [+], proto TCP (6), length 28)
    10.1.2.3 > 10.9.8.7: tcp
	0x0000:  0209 0807 0605 0201 0203 0405 0800 4500  ..............E.
	0x0010:  001c 005b 2013 4006 3c5b 0a01 0203 0a09  ...[..@.<[......
	0x0020:  0807 2c20 6e61 7363 6574                 ..,.nascet
IP (tos 0x0, ttl 64, id 78, offset 280, flags [+], proto TCP (6), length 28)
    10.1.2.3 > 10.9.8.7: tcp
	0x0000:  0209 0807 0605 0201 0203 0405 0800 4500  ..............E.
	0x0010:  001c 004e 2023 4006 3c58 0a01 0203 0a09  ...N.#@.<X......
	0x0020:  0807 2061 6d65 7420 6c61                 ...amet.la
IP (tos 0x0, ttl 64, id 111, offset 304, flags [+], proto TCP (6), length 28)
    10.1.2.3 > 10.9.8.7: tcp
	0x0000:  0209 0807 0605 0201 0203 0405 0800 4500  ..............E.
	0x0010:  001c 006f 2026 4006 3c34 0a01 0203 0a09  ...o.&@.<4......
	0x0020:  0807 732c 2069 6420 616c                 ..s,.id.al
IP (tos 0x0, ttl 64, id 47, offset 152, flags [+], proto TCP (6), length 28)
    10.1.2.3 > 10.9.8.7: tcp
	0x0000:  0209 0807 0605 0201 0203 0405 0800 4500  ..............E.
	0x0010:  001c 002f 2013 4006 3c87 0a01 0203 0a09  .../..@.<.......
	0x0020:  0807 7475 7320 706c 6163                 ..tus.plac
IP (tos 0x0, ttl 64, id 61, offset 528, flags [none], proto TCP (6), length 24)
    10.1.2.3 > 10.9.8.7: tcp
	0x0000:  0209 0807 0605 0201 0203 0405 0800 4500  ..............E.
	0x0010:  0018 003d 0042 4006 5c4e 0a01 0203 0a09  ...=.B@.\N......
	0x0020:  0807 7420 6d61                           ..t.ma
IP (tos 0x0, ttl 64, id 17, offset 520, flags [+], proto TCP (6), length 28)
    10.1.2.3 > 10.9.8.7: tcp
	0x0000:  0209 0807 0605 0201 0203 0405 0800 4500  ..............E.
	0x0010:  001c 0011 2041 4006 3c77 0a01 0203 0a09  .....A@.<w......
	0x0020:  0807 6c61 2076 656e 656e                 ..la.venen
IP (tos 0x0, ttl 64, id 82, offset 472, flags [+], proto TCP (6), length 28)
    10.1.2.3 > 10.9.8.7: tcp
	0x0000:  0209 0807 0605 0201 0203 0405 0800 4500  ..............E.
	0x0010:  001c 0052 203b 4006 3c3c 0a01 0203 0a09  ...R.;@.<<......
	0x0020:  0807 7175 6520 696e 2061                 ..que.in.a
IP (tos 0x0, ttl 64, id 5, offset 312, flags [+], proto TCP (6), length 28)
    10.1.2.3 > 10.9.8.7: tcp
	0x0000:  0209 0807 0605 0201 0203 0405 0800 4500  ..............E.
	0x0010:  001c 0005 2027 4006 3c9d 0a01 0203 0a09  .....'@.<.......
	0x0020:  0807 636f 6e73 6571 7561                 ..consequa
IP (tos 0x0, ttl 64, id 9, offset 256, flags [+], proto TCP (6), length 28)
    10.1.2.3 > 10.9.8.7: tcp
	0x0000:  0209 0807 0605 0201 0203 0405 0800 4500  ..............E.
	0x0010:  001c 0009 2020 4006 3ca0 0a01 0203 0a09  ......@.<.......
	0x0020:  0807 6973 7175 6520 6e65                 ..isque.ne
IP (tos 0x0, ttl 64, id 91, offset 136, flags [+], proto TCP (6), length 28)
    10.1.2.3 > 10.9.8.7: tcp
	0x0000:  0209 0807 0605 0201 0203 0405 0800 4500  ..............E.
	0x0010:  001c 005b 2011 4006 3c5d 0a01 0203 0a09  ...[..@.<]......
	0x0020:  0807 6172 7475 7269 656e                 ..arturien
IP (tos 0x0, ttl 64, id 68, offset 376, flags [+], proto TCP (6), length 28)
    10.1.2.3 > 10.9.8.7: tcp
	0x0000:  0209 0807 0605 0201 0203 0405 0800 4500  ..............E.
	0x0010:  001c 0044 202f 4006 3c56 0a01 0203 0a09  ...D./@.<V......
	0x0020:  0807 7474 6973 2074 656c                 ..ttis.tel
IP (tos 0x0, ttl 64, id 121, offset 168, flags [+], proto TCP (6), length 28)
    10.1.2.3 > 10.9.8.7: tcp
	0x0000:  0209 0807 0605 0201 0203 0405 0800 4500  ..............E.
	0x0010:  001c 0079 2015 4006 3c3b 0a01 0203 0a09  ...y..@.<;......
	0x0020:  0807 6175 6775 652e 2043                 ..augue..C
IP (tos 0x0, ttl 64, id 10, offset 248, flags [+], proto TCP (6), length 28)
    10.1.2.3 > 10.9.8.7: tcp
	0x0000:  0209 0807 0605 0201 0203 0405 0800 4500  ..............E.
	0x0010:  001c 000a 201f 4006 3ca0 0a01 0203 0a09  ......@.<.......
	0x0020:  0807 5072 6f69 6e20 6f72                 ..Proin.or
IP (tos 0x0, ttl 64, id 8, offset 176, flags [+], proto TCP (6), length 28)
    10.1.2.3 > 10.9.8.7: tcp
	0x0000:  0209 0807 0605 0201 0203 0405 0800 4500  ..............E.
	0x0010:  001c 0008 2016 4006 3cab 0a01 0203 0a09  ......@.<.......
	0x0020:  0807 656e 7465 7371 7565                 ..entesque
IP (tos 0x0, ttl 64, id 59, offset 216, flags [+], proto TCP (6), length 28)
    10.1.2.3 > 10.9.8.7: tcp
	0x0000:  0209 0807 0605 0201 0203 0405 0800 4500  ..............E.
	0x0010:  001c 003b 201b 4006 3c73 0a01 0203 0a09  ...;..@.<s......
	0x0020:  0807 6e69 6120 706f 7274                 ..nia.port
IP (tos 0x0, ttl 64, id 47, offset 280, flags [+], proto TCP (6), length 28)
    10.1.2.3 > 10.9.8.7: tcp
	0x0000:  0209 0807 0605 0201 0203 0405 0800 4500  ..............E.
	0x0010:  001c 002f 2023 4006 3c77 0a01 0203 0a09  .../.#@.<w......
	0x0020:  0807 206f 6469 6f20 706c                 ...odio.pl
IP (tos 0x0, ttl 64, id 97, offset 88, flags [+], proto TCP (6), length 28)
    10.1.2.3 > 10.9.8.7: tcp
	0x0000:  0209 0807 0605 0201 0203 0405 0800 4500  ..............E.
	0x0010:  001c 0061 200b 4006 3c5d 0a01 0203 0a09  ...a..@.<]......
	0x0020:  0807 616c 6971 7565 7420                 ..aliquet.
IP (tos 0x0, ttl 64, id 124, offset 520, flags [+], proto TCP (6), length 28)
    10.1.2.3 > 10.9.8.7: tcp
	0x0000:  0209 0807 0605 0201 0203 0405 0800 4500  ..............E.
	0x0010:  001c 007c 2041 4006 3c0c 0a01 0203 0a09  ...|.A@.<.......
	0x0020:  0807 6976 616d 7573 2061                 ..ivamus.a
IP (tos 0x0, ttl 64, id 5, offset 384, flags [+], proto TCP (6), length 28)
    10.1.2.3 > 10.9.8.7: tcp
	0x0000:  0209 0807 0605 0201 0203 0405 0800 4500  ..............E.
	0x0010:  001c 0005 2030 4006 3c94 0a01 0203 0a09  .....0@.<.......
	0x0020:  0807 616e 2071 7569 7320                 ..an.quis.
IP (tos 0x0, ttl 64, id 62, offset 72, flags [+], proto TCP (6), length 28)
    10.1.2.3 > 10.9.8.7: tcp
	0x0000:  0209 0807 0605 0201 0203 0405 0800 4500  ..............E.
	0x0010:  001c 003e 2009 4006 3c82 0a01 0203 0a09  ...>..@.<.......
	0x0020:  0807 6469 6f20 6970 7375                 ..dio.ipsu
IP (tos 0x0, ttl 64, id 89, offset 344, flags [+], proto TCP (6), length 28)
    10.1.2.3 > 10.9.8.7: tcp
	0x0000:  0209 0807 0605 0201 0203 0405 0800 4500  ..............E.
	0x0010:  001c 0059 202b 4006 3c45 0a01 0203 0a09  ...Y.+@.<E......
	0x0020:  0807 706f 7375 6572 6520                 ..posuere.
IP (tos 0x0, ttl 64, id 27, offset 280, flags [+], proto TCP (6), length 28)
    10.1.2.3 > 10.9.8.7: tcp
	0x0000:  0209 0807 0605 0201 0203 0405 0800 4500  ..............E.
	0x0010:  001c 001b 2023 4006 3c8b 0a01 0203 0a09  .....#@.<.......
	0x0020:  0807 2073 6564 206e 6f6e                 ...sed.non
IP (tos 0x0, ttl 64, id 33, offset 392, flags [+], proto TCP (6), length 28)
    10.1.2.3 > 10.9.8.7: tcp
	0x0000:  0209 0807 0605 0201 0203 0405 0800 4500  ..............E.
	0x0010:  001c 0021 2031 4006 3c77 0a01 0203 0a09  ...!.1@.<w......
	0x0020:  0807 6963 7475 6d20 6f72                 ..ictum.or
IP (tos 0x0, ttl 64, id 126, offset 288, flags [+], proto TCP (6), length 28)
    10.1.2.3 > 10.9.8.7: tcp
	0x0000:  0209 0807 0605 0201 0203 0405 0800 4500  ..............E.
	0x0010:  001c 007e 2024 4006 3c27 0a01 0203 0a09  ...~.$@.<'......
	0x0020:  0807 206d 616c 6573 7561                 ...malesua
IP (tos 0x0, ttl 64, id 100, offset 448, flags [+], proto TCP (6), length 28)
    10.1.2.3 > 10.9.8.7: tcp
	0x0000:  0209 0807 0605 0201 0203 0405 0800 4500  ..............E.
	0x0010:  001c 0064 2038 4006 3c2d 0a01 0203 0a09  ...d.8@.<-......
	0x0020:  0807 6c69 7420 656c 6974                 ..lit.elit
IP (tos 0x0, ttl 64, id 41, offset 360, flags [+], proto TCP (6), length 28)
    10.1.2.3 > 10.9.8.7: tcp
	0x0000:  0209 0807 0605 0201 0203 0405 0800 4500  ..............E.
	0x0010:  001c 0029 202d 4006 3c73 0a01 0203 0a09  ...).-@.<s......
	0x0020:  0807 7572 6165 3b20 4e75                 ..urae;.Nu
IP (tos 0x0, ttl 64, id 13, offset 120, flags [+], proto TCP (6), length 28)
    10.1.2.3 > 10.9.8.7: tcp
	0x0000:  0209 0807 0605 0201 0203 0405 0800 4500  ..............E.
	0x0010:  001c 000d 200f 4006 3cad 0a01 0203 0a09  ......@.<.......
	0x0020:  0807 7469 616d 2069 6420                 ..tiam.id.
IP (tos 0x0, ttl 64, id 118, offset 16, flags [+], proto TCP (6), length 28)
    10.1.2.3 > 10.9.8.7: tcp
	0x0000:  0209 0807 0605 0201 0203 0405 0800 4500  ..............E.
	0x0010:  001c 0076 2002 4006 3c51 0a01 0203 0a09  ...v..@.<Q......
	0x0020:  0807 869e 0000 6d20 6469                 ......m.di
IP (tos 0x0, ttl 64, id 37, offset 424, flags [+], proto TCP (6), length 28)
    10.1.2.3 > 10.9.8.7: tcp
	0x0000:  0209 0807 0605 0201 0203 0405 0800 4500  ..............E.
	0x0010:  001c 0025 2035 4006 3c6f 0a01 0203 0a09  ...%.5@.<o......
	0x0020:  0807 6e63 7573 2061 6320                 ..ncus.ac.
IP (tos 0x0, ttl 64, id 119, offset 272, flags [+], proto TCP (6), length 28)
    10.1.2.3 > 10.9.8.7: tcp
	0x0000:  0209 0807 0605 0201 0203 0405 0800 4500  ..............E.
	0x0010:  001c 0077 2022 4006 3c30 0a01 0203 0a09  ...w."@.<0......
	0x0020:  0807 6967 756c 6120 6d6f                 ..igula.mo
IP (tos 0x0, ttl 64, id 10, offset 280, flags [+], proto TCP (6), length 28)
    10.1.2.3 > 10.9.8.7: tcp
	0x0000:  0209 0807 0605 0201 0203 0405 0800 4500  ..............E.
	0x0010:  001c 000a 2023 4006 3c9c 0a01 0203 0a09  .....#@.<.......
	0x0020:  0807 722e 2041 6c69 7175                 ..r..Aliqu
IP (tos 0x0, ttl 64, id 18, offset 192, flags [+], proto TCP (6), length 28)
    10.1.2.3 > 10.9.8.7: tcp
	0x0000:  0209 0807 0605 0201 0203 0405 0800 4500  ..............E.
	0x0010:  001c 0012 2018 4006 3c9f 0a01 0203 0a09  ......@.<.......
	0x0020:  0807 656f 2075 7420 696d                 ..eo.ut.im
IP (tos 0x0, ttl 64, id 39, offset 352, flags [+], proto TCP (6), length 28)
    10.1.2.3 > 10.9.8.7: tcp
	0x0000:  0209 0807 0605 0201 0203 0405 0800 4500  ..............E.
	0x0010:  001c 0027 202c 4006 3c76 0a01 0203 0a09  ...'.,@.<v......
	0x0020:  0807 7665 6c20 6672 696e                 ..vel.frin
IP (tos 0x0, ttl 64, id 24, offset 80, flags [+], proto TCP (6), length 28)
    10.1.2.3 > 10.9.8.7: tcp
	0x0000:  0209 0807 0605 0201 0203 0405 0800 4500  ..............E.
	0x0010:  001c 0018 200a 4006 3ca7 0a01 0203 0a09  ......@.<.......
	0x0020:  0807 6574 7572 2e20 4d6f                 ..etur..Mo
IP (tos 0x0, ttl 64, id 112, offset 416, flags [+], proto TCP (6), length 28)
    10.1.2.3 > 10.9.8.7: tcp
	0x0000:  0209 0807 0605 0201 0203 0405 0800 4500  ..............E.
	0x0010:  001c 0070 2034 4006 3c25 0a01 0203 0a09  ...p.4@.<%......
	0x0020:  0807 756c 6c61 2e20 5175                 ..ulla..Qu
IP (tos 0x0, ttl 64, id 122, offset 72, flags [+], proto TCP (6), length 28)
    10.1.2.3 > 10.9.8.7: tcp
	0x0000:  0209 0807 0605 0201 0203 0405 0800 4500  ..............E.
	0x0010:  001c 007a 2009 4006 3c46 0a01 0203 0a09  ...z..@.<F......
	0x0020:  0807 6573 2065 7261 742e                 ..es.erat.
IP (tos 0x0, ttl 64, id 47, offset 376, flags [+], proto TCP (6), length 28)
    10.1.2.3 > 10.9.8.7: tcp
	0x0000:  0209 0807 0605 0201 0203 0405 0800 4500  ..............E.
	0x0010:  001c 002f 202f 4006 3c6b 0a01 0203 0a09  ..././@.<k......
	0x0020:  0807 6d20 7665 6c69 7420                 ..m.velit.
IP (tos 0x0, ttl 64, id 94, offset 520, flags [+], proto TCP (6), length 28)
    10.1.2.3 > 10.9.8.7: tcp
	0x0000:  0209 0807 0605 0201 0203 0405 0800 4500  ..............E.
	0x0010:  001c 005e 2041 4006 3c2a 0a01 0203 0a09  ...^.A@.<*......
	0x0020:  0807 7263 692c 2071 7569                 ..rci,.qui
IP (tos 0x0, ttl 64, id 90, offset 160, flags [+], proto TCP (6), length 28)
    10.1.2.3 > 10.9.8.7: tcp
	0x0000:  0209 0807 0605 0201 0203 0405 0800 4500  ..............E.
	0x0010:  001c 005a 2014 4006 3c5b 0a01 0203 0a09  ...Z..@.<[......
	0x0020:  0807 726f 206d 6173 7361                 ..ro.massa
IP (tos 0x0, ttl 64, id 123, offset 344, flags [+], proto TCP (6), length 28)
    10.1.2.3 > 10.9.8.7: tcp
	0x0000:  0209 0807 0605 0201 0203 0405 0800 4500  ..............E.
	0x0010:  001c 007b 202b 4006 3c23 0a01 0203 0a09  ...{.+@.<#......
	0x0020:  0807 7373 696d 2074 656c                 ..ssim.tel
IP (tos 0x0, ttl 64, id 10, offset 104, flags [+], proto TCP (6), length 28)
    10.1.2.3 > 10.9.8.7: tcp
	0x0000:  0209 0807 0605 0201 0203 0405 0800 4500  ..............E.
	0x0010:  001c 000a 200d 4006 3cb2 0a01 0203 0a09  ......@.<.......
	0x0020:  0807 6120 7665 6c69 7420                 ..a.velit.
IP (tos 0x0, ttl 64, id 23, offset 272, flags [+], proto TCP (6), length 28)
    10.1.2.3 > 10.9.8.7: tcp
	0x0000:  0209 0807 0605 0201 0203 0405 0800 4500  ..............E.
	0x0010:  001c 0017 2022 4006 3c90 0a01 0203 0a09  ....."@.<.......
	0x0020:  0807 6e67 7565 2065 6765                 ..ngue.ege
IP (tos 0x0, ttl 64, id 69, offset 56, flags [+], proto TCP (6), length 28)
    10.1.2.3 > 10.9.8.7: tcp
	0x0000:  0209 0807 0605 0201 0203 0405 0800 4500  ..............E.
	0x0010:  001c 0045 2007 4006 3c7d 0a01 0203 0a09  ...E..@.<}......
	0x0020:  0807 756c 756d 2076 6f6c                 ..ulum.vol
IP (tos 0x0, ttl 64, id 101, offset 368, flags [+], proto TCP (6), length 28)
    10.1.2.3 > 10.9.8.7: tcp
	0x0000:  0209 0807 0605 0201 0203 0405 0800 4500  ..............E.
	0x0010:  001c 0065 202e 4006 3c36 0a01 0203 0a09  ...e..@.<6......
	0x0020:  0807 7573 206d 6174 7469                 ..us.matti
IP (tos 0x0, ttl 64, id 67, offset 472, flags [+], proto TCP (6), length 28)
    10.1.2.3 > 10.9.8.7: tcp
	0x0000:  0209 0807 0605 0201 0203 0405 0800 4500  ..............E.
	0x0010:  001c 0043 203b 4006 3c4b 0a01 0203 0a09  ...C.;@.<K......
	0x0020:  0807 2061 6c69 7175 616d                 ...aliquam
IP (tos 0x0, ttl 64, id 86, offset 144, flags [+], proto TCP (6), length 28)
    10.1.2.3 > 10.9.8.7: tcp
	0x0000:  0209 0807 0605 0201 0203 0405 0800 4500  ..............E.
	0x0010:  001c 0056 2012 4006 3c61 0a01 0203 0a09  ...V..@.<a......
	0x0020:  0807 6574 2064 6967 6e69                 ..et.digni
IP (tos 0x0, ttl 64, id 51, offset 96, flags [+], proto TCP (6), length 28)
    10.1.2.3 > 10.9.8.7: tcp
	0x0000:  0209 0807 0605 0201 0203 0405 0800 4500  ..............E.
	0x0010:  001c 0033 200c 4006 3c8a 0a01 0203 0a09  ...3..@.<.......
	0x0020:  0807 6120 6c61 6369 6e69                 ..a.lacini
IP (tos 0x0, ttl 64, id 112, offset 200, flags [+], proto TCP (6), length 28)
    10.1.2.3 > 10.9.8.7: tcp
	0x0000:  0209 0807 0605 0201 0203 0405 0800 4500  ..............E.
	0x0010:  001c 0070 2019 4006 3c40 0a01 0203 0a09  ...p..@.<@......
	0x0020:  0807 7265 2063 7562 696c                 ..re.cubil
IP (tos 0x0, ttl 64, id 13, offset 240, flags [+], proto TCP (6), length 28)
    10.1.2.3 > 10.9.8.7: tcp
	0x0000:  0209 0807 0605 0201 0203 0405 0800 4500  ..............E.
	0x0010:  001c 000d 201e 4006 3c9e 0a01 0203 0a09  ......@.<.......
	0x0020:  0807 6e74 756d 206d 6f6c                 ..ntum.mol
IP (tos 0x0, ttl 64, id 10, offset 272, flags [+], proto TCP (6), length 28)
    10.1.2.3 > 10.9.8.7: tcp
	0x0000:  0209 0807 0605 0201 0203 0405 0800 4500  ..............E.
	0x0010:  001c 000a 2022 4006 3c9d 0a01 0203 0a09  ....."@.<.......
	0x0020:  0807 706f 7274 7469 746f                 ..porttito
IP (tos 0x0, ttl 64, id 27, offset 384, flags [+], proto TCP (6), length 28)
    10.1.2.3 > 10.9.8.7: tcp
	0x0000:  0209 0807 0605 0201 0203 0405 0800 4500  ..............E.
	0x0010:  001c 001b 2030 4006 3c7e 0a01 0203 0a09  .....0@.<~......
	0x0020:  0807 6561 6e20 7175 6973                 ..ean.quis
IP (tos 0x0, ttl 64, id 22, offset 96, flags [+], proto TCP (6), length 28)
    10.1.2.3 > 10.9.8.7: tcp
	0x0000:  0209 0807 0605 0201 0203 0405 0800 4500  ..............E.
	0x0010:  001c 0016 200c 4006 3ca7 0a01 0203 0a09  ......@.<.......
	0x0020:  0807 2073 6f63 6969 7320                 ...sociis.
IP (tos 0x0, ttl 64, id 36, offset 184, flags [+], proto TCP (6), length 28)
    10.1.2.3 > 10.9.8.7: tcp
	0x0000:  0209 0807 0605 0201 0203 0405 0800 4500  ..............E.
	0x0010:  001c 0024 2017 4006 3c8e 0a01 0203 0a09  ...$..@.<.......
	0x0020:  0807 6e20 6865 6e64 7265                 ..n.hendre
IP (tos 0x0, ttl 64, id 65, offset 48, flags [+], proto TCP (6), length 28)
    10.1.2.3 > 10.9.8.7: tcp
	0x0000:  0209 0807 0605 0201 0203 0405 0800 4500  ..............E.
	0x0010:  001c 0041 2006 4006 3c82 0a01 0203 0a09  ...A..@.<.......
	0x0020:  0807 7520 656e 696d 2073                 ..u.enim.s
IP (tos 0x0, ttl 64, id 122, offset 96, flags [+], proto TCP (6), length 28)
    10.1.2.3 > 10.9.8.7: tcp
	0x0000:  0209 0807 0605 0201 0203 0405 0800 4500  ..............E.
	0x0010:  001c 007a 200c 4006 3c43 0a01 0203 0a09  ...z..@.<C......
	0x0020:  0807 6369 7069 7420 7572                 ..cipit.ur
IP (tos 0x0, ttl 64, id 127, offset 520, flags [+], proto TCP (6), length 28)
    10.1.2.3 > 10.9.8.7: tcp
	0x0000:  0209 0807 0605 0201 0203 0405 0800 4500  ..............E.
	0x0010:  001c 007f 2041 4006 3c09 0a01 0203 0a09  .....A@.<.......
	0x0020:  0807 6961 2e20 5072 6f69                 ..ia..Proi
IP (tos 0x0, ttl 64, id 90, offset 280, flags [+], proto TCP (6), length 28)
    10.1.2.3 > 10.9.8.7: tcp
	0x0000:  0209 0807 0605 0201 0203 0405 0800 4500  ..............E.
	0x0010:  001c 005a 2023 4006 3c4c 0a01 0203 0a09  ...Z.#@.<L......
	0x0020:  0807 2061 7567 7565 2e20                 ...augue..
IP (tos 0x0, ttl 64, id 117, offset 520, flags [+], proto TCP (6), length 28)
    10.1.2.3 > 10.9.8.7: tcp
	0x0000:  0209 0807 0605 0201 0203 0405 0800 4500  ..............E.
	0x0010:  001c 0075 2041 4006 3c13 0a01 0203 0a09  ...u.A@.<.......
	0x0020:  0807 7475 7220 6469 676e                 ..tur.dign
IP (tos 0x0, ttl 64, id 69, offset 408, flags [+], proto TCP (6), length 28)
    10.1.2.3 > 10.9.8.7: tcp
	0x0000:  0209 0807 0605 0201 0203 0405 0800 4500  ..............E.
	0x0010:  001c 0045 2033 4006 3c51 0a01 0203 0a09  ...E.3@.<Q......
	0x0020:  0807 756e 632e 2056 6573                 ..unc..Ves
IP (tos 0x0, ttl 64, id 21, offset 120, flags [+], proto TCP (6), length 28)
    10.1.2.3 > 10.9.8.7: tcp
	0x0000:  0209 0807 0605 0201 0203 0405 0800 4500  ..............E.
	0x0010:  001c 0015 200f 4006 3ca5 0a01 0203 0a09  ......@.<.......
	0x0020:  0807 2e20 4375 7261 6269                 ....Curabi
IP (tos 0x0, ttl 64, id 109, offset 528, flags [none], proto TCP (6), length 24)
    10.1.2.3 > 10.9.8.7: tcp
	0x0000:  0209 0807 0605 0201 0203 0405 0800 4500  ..............E.
	0x0010:  0018 006d 0042 4006 5c1e 0a01 0203 0a09  ...m.B@.\.......
	0x0020:  0807 7569 7320                           ..uis.
IP (tos 0x0, ttl 64, id 76, offset 112, flags [+], proto TCP (6), length 28)
    10.1.2.3 > 10.9.8.7: tcp
	0x0000:  0209 0807 0605 0201 0203 0405 0800 4500  ..............E.
	0x0010:  001c 004c 200e 4006 3c6f 0a01 0203 0a09  ...L..@.<o......
	0x0020:  0807 6e63 6964 756e 7420                 ..ncidunt.
IP (tos 0x0, ttl 64, id 114, offset 368, flags [+], proto TCP (6), length 28)
    10.1.2.3 > 10.9.8.7: tcp
	0x0000:  0209 0807 0605 0201 0203 0405 0800 4500  ..............E.
	0x0010:  001c 0072 202e 4006 3c29 0a01 0203 0a09  ...r..@.<)......
	0x0020:  0807 7573 6369 7069 742c                 ..uscipit,
IP (tos 0x0, ttl 64, id 98, offset 416, flags [+], proto TCP (6), length 28)
    10.1.2.3 > 10.9.8.7: tcp
	0x0000:  0209 0807 0605 0201 0203 0405 0800 4500  ..............E.
	0x0010:  001c 0062 2034 4006 3c33 0a01 0203 0a09  ...b.4@.<3......
	0x0020:  0807 7420 616d 6574 206e                 ..t.amet.n
IP (tos 0x0, ttl 64, id 54, offset 368, flags [+], proto TCP (6), length 28)
    10.1.2.3 > 10.9.8.7: tcp
	0x0000:  0209 0807 0605 0201 0203 0405 0800 4500  ..............E.
	0x0010:  001c 0036 202e 4006 3c65 0a01 0203 0a09  ...6..@.<e......
	0x0020:  0807 6461 2065 7520 746f                 ..da.eu.to
IP (tos 0x0, ttl 64, id 107, offset 64, flags [+], proto TCP (6), length 28)
    10.1.2.3 > 10.9.8.7: tcp
	0x0000:  0209 0807 0605 0201 0203 0405 0800 4500  ..............E.
	0x0010:  001c 006b 2008 4006 3c56 0a01 0203 0a09  ...k..@.<V......
	0x0020:  0807 7320 7269 7375 7320                 ..s.risus.
IP (tos 0x0, ttl 64, id 123, offset 128, flags [+], proto TCP (6), length 28)
    10.1.2.3 > 10.9.8.7: tcp
	0x0000:  0209 0807 0605 0201 0203 0405 0800 4500  ..............E.
	0x0010:  001c 007b 2010 4006 3c3e 0a01 0203 0a09  ...{..@.<>......
	0x0020:  0807 7374 6173 2e20 5574                 ..stas..Ut
IP (tos 0x0, ttl 64, id 26, offset 480, flags [+], proto TCP (6), length 28)
    10.1.2.3 > 10.9.8.7: tcp
	0x0000:  0209 0807 0605 0201 0203 0405 0800 4500  ..............E.
	0x0010:  001c 001a 203c 4006 3c73 0a01 0203 0a09  .....<@.<s......
	0x0020:  0807 696e 6172 206f 7263                 ..inar.orc
IP (tos 0x0, ttl 64, id 96, offset 424, flags [+], proto TCP (6), length 28)
    10.1.2.3 > 10.9.8.7: tcp
	0x0000:  0209 0807 0605 0201 0203 0405 0800 4500  ..............E.
	0x0010:  001c 0060 2035 4006 3c34 0a01 0203 0a09  ...`.5@.<4......
	0x0020:  0807 6162 6974 7572 2069                 ..abitur.i
IP (tos 0x0, ttl 64, id 31, offset 48, flags [+], proto TCP (6), length 28)
    10.1.2.3 > 10.9.8.7: tcp
	0x0000:  0209 0807 0605 0201 0203 0405 0800 4500  ..............E.
	0x0010:  001c 001f 2006 4006 3ca4 0a01 0203 0a09  ......@.<.......
	0x0020:  0807 7374 2e20 5365 6420                 ..st..Sed.
IP (tos 0x0, ttl 64, id 65, offset 16, flags [+], proto TCP (6), length 28)
    10.1.2.3 > 10.9.8.7: tcp
	0x0000:  0209 0807 0605 0201 0203 0405 0800 4500  ..............E.
	0x0010:  001c 0041 2002 4006 3c86 0a01 0203 0a09  ...A..@.<.......
	0x0020:  0807 e835 0000 6962 682e                 ...5..ibh.
IP (tos 0x0, ttl 64, id 82, offset 72, flags [+], proto TCP (6), length 28)
    10.1.2.3 > 10.9.8.7: tcp
	0x0000:  0209 0807 0605 0201 0203 0405 0800 4500  ..............E.
	0x0010:  001c 0052 2009 4006 3c6e 0a01 0203 0a09  ...R..@.<n......
	0x0020:  0807 7661 6d75 7320 6d69                 ..vamus.mi
IP (tos 0x0, ttl 64, id 84, offset 480, flags [+], proto TCP (6), length 28)
    10.1.2.3 > 10.9.8.7: tcp
	0x0000:  0209 0807 0605 0201 0203 0405 0800 4500  ..............E.
	0x0010:  001c 0054 203c 4006 3c39 0a01 0203 0a09  ...T.<@.<9......
	0x0020:  0807 6265 726f 2c20 6964                 ..bero,.id
IP (tos 0x0, ttl 64, id 65, offset 144, flags [+], proto TCP (6), length 28)
    10.1.2.3 > 10.9.8.7: tcp
	0x0000:  0209 0807 0605 0201 0203 0405 0800 4500  ..............E.
	0x0010:  001c 0041 2012 4006 3c76 0a01 0203 0a09  ...A..@.<v......
	0x0020:  0807 616e 6469 7420 6575                 ..andit.eu
IP (tos 0x0, ttl 64, id 86, offset 24, flags [+], proto TCP (6), length 28)
    10.1.2.3 > 10.9.8.7: tcp
	0x0000:  0209 0807 0605 0201 0203 0405 0800 4500  ..............E.
	0x0010:  001c 0056 2003 4006 3c70 0a01 0203 0a09  ...V..@.<p......
	0x0020:  0807 7175 616d 2c20 6120                 ..quam,.a.
IP (tos 0x0, ttl 64, id 88, offset 264, flags [+], proto TCP (6), length 28)
    10.1.2.3 > 10.9.8.7: tcp
	0x0000:  0209 0807 0605 0201 0203 0405 0800 4500  ..............E.
	0x0010:  001c 0058 2021 4006 3c50 0a01 0203 0a09  ...X.!@.<P......
	0x0020:  0807 6320 7665 6c20 656c                 ..c.vel.el
IP (tos 0x0, ttl 64, id 69, offset 176, flags [+], proto TCP (6), length 28)
    10.1.2.3 > 10.9.8.7: tcp
	0x0000:  0209 0807 0605 0201 0203 0405 0800 4500  ..............E.
	0x0010:  001c 0045 2016 4006 3c6e 0a01 0203 0a09  ...E..@.<n......
	0x0020:  0807 7465 2061 6363 756d                 ..te.accum
IP (tos 0x0, ttl 64, id 45, offset 488, flags [+], proto TCP (6), length 28)
    10.1.2.3 > 10.9.8.7: tcp
	0x0000:  0209 0807 0605 0201 0203 0405 0800 4500  ..............E.
	0x0010:  001c 002d 203d 4006 3c5f 0a01 0203 0a09  ...-.=@.<_......
	0x0020:  0807 732e 2020 4e61 6d20                 ..s...Nam.
IP (tos 0x0, ttl 64, id 57, offset 416, flags [+], proto TCP (6), length 28)
    10.1.2.3 > 10.9.8.7: tcp
	0x0000:  0209 0807 0605 0201 0203 0405 0800 4500  ..............E.
	0x0010:  001c 0039 2034 4006 3c5c 0a01 0203 0a09  ...9.4@.<\......
	0x0020:  0807 6573 7461 732e 2020                 ..estas...
IP (tos 0x0, ttl 64, id 31, offset 152, flags [+], proto TCP (6), length 28)
    10.1.2.3 > 10.9.8.7: tcp
	0x0000:  0209 0807 0605 0201 0203 0405 0800 4500  ..............E.
	0x0010:  001c 001f 2013 4006 3c97 0a01 0203 0a09  ......@.<.......
	0x0020:  0807 2063 6f6e 7661 6c6c                 ...convall
IP (tos 0x0, ttl 64, id 48, offset 16, flags [+], proto TCP (6), length 28)
    10.1.2.3 > 10.9.8.7: tcp
	0x0000:  0209 0807 0605 0201 0203 0405 0800 4500  ..............E.
	0x0010:  001c 0030 2002 4006 3c97 0a01 0203 0a09  ...0..@.<.......
	0x0020:  0807 a5c5 0000 7572 2067                 ......ur.g
IP (tos 0x0, ttl 64, id 97, offset 136, flags [+], proto TCP (6), length 28)
    10.1.2.3 > 10.9.8.7: tcp
	0x0000:  0209 0807 0605 0201 0203 0405 0800 4500  ..............E.
	0x0010:  001c 0061 2011 4006 3c57 0a01 0203 0a09  ...a..@.<W......
	0x0020:  0807 6974 7564 696e 2064                 ..itudin.d
IP (tos 0x0, ttl 64, id 124, offset 48, flags [+], proto TCP (6), length 28)
    10.1.2.3 > 10.9.8.7: tcp
	0x0000:  0209 0807 0605 0201 0203 0405 0800 4500  ..............E.
	0x0010:  001c 007c 2006 4006 3c47 0a01 0203 0a09  ...|..@.<G......
	0x0020:  0807 2073 6167 6974 7469                 ...sagitti
IP (tos 0x0, ttl 64, id 94, offset 416, flags [+], proto TCP (6), length 28)
    10.1.2.3 > 10.9.8.7: tcp
	0x0000:  0209 0807 0605 0201 0203 0405 0800 4500  ..............E.
	0x0010:  001c 005e 2034 4006 3c37 0a01 0203 0a09  ...^.4@.<7......
	0x0020:  0807 7369 7320 6572 6174                 ..sis.erat
IP (tos 0x0, ttl 64, id 119, offset 64, flags [+], proto TCP (6), length 28)
    10.1.2.3 > 10.9.8.7: tcp
	0x0000:  0209 0807 0605 0201 0203 0405 0800 4500  ..............E.
	0x0010:  001c 0077 2008 4006 3c4a 0a01 0203 0a09  ...w..@.<J......
	0x0020:  0807 696f 2064 6f6c 6f72                 ..io.dolor
IP (tos 0x0, ttl 64, id 80, offset 456, flags [+], proto TCP (6), length 28)
    10.1.2.3 > 10.9.8.7: tcp
	0x0000:  0209 0807 0605 0201 0203 0405 0800 4500  ..............E.
	0x0010:  001c 0050 2039 4006 3c40 0a01 0203 0a09  ...P.9@.<@......
	0x0020:  0807 6520 7065 6e61 7469                 ..e.penati
IP (tos 0x0, ttl 64, id 16, offset 112, flags [+], proto TCP (6), length 28)
    10.1.2.3 > 10.9.8.7: tcp
	0x0000:  0209 0807 0605 0201 0203 0405 0800 4500  ..............E.
	0x0010:  001c 0010 200e 4006 3cab 0a01 0203 0a09  ......@.<.......
	0x0020:  0807 6572 2061 2071 7561                 ..er.a.qua
IP (tos 0x0, ttl 64, id 85, offset 120, flags [+], proto TCP (6), length 28)
    10.1.2.3 > 10.9.8.7: tcp
	0x0000:  0209 0807 0605 0201 0203 0405 0800 4500  ..............E.
	0x0010:  001c 0055 200f 4006 3c65 0a01 0203 0a09  ...U..@.<e......
	0x0020:  0807 6769 6174 2071 7561                 ..giat.qua
IP (tos 0x0, ttl 64, id 28, offset 480, flags [+], proto TCP (6), length 28)
    10.1.2.3 > 10.9.8.7: tcp
	0x0000:  0209 0807 0605 0201 0203 0405 0800 4500  ..............E.
	0x0010:  001c 001c 203c 4006 3c71 0a01 0203 0a09  .....<@.<q......
	0x0020:  0807 7375 7320 6461 7069                 ..sus.dapi
IP (tos 0x0, ttl 64, id 124, offset 168, flags [+], proto TCP (6), length 28)
    10.1.2.3 > 10.9.8.7: tcp
	0x0000:  0209 0807 0605 0201 0203 0405 0800 4500  ..............E.
	0x0010:  001c 007c 2015 4006 3c38 0a01 0203 0a09  ...|..@.<8......
	0x0020:  0807 6765 7374 6173 2062                 ..gestas.b
IP (tos 0x0, ttl 64, id 14, offset 176, flags [+], proto TCP (6), length 28)
    10.1.2.3 > 10.9.8.7: tcp
	0x0000:  0209 0807 0605 0201 0203 0405 0800 4500  ..............E.
	0x0010:  001c 000e 2016 4006 3ca5 0a01 0203 0a09  ......@.<.......
	0x0020:  0807 2061 6c69 7175 6574                 ...aliquet
IP (tos 0x0, ttl 64, id 104, offset 496, flags [+], proto TCP (6), length 28)
    10.1.2.3 > 10.9.8.7: tcp
	0x0000:  0209 0807 0605 0201 0203 0405 0800 4500  ..............E.
	0x0010:  001c 0068 203e 4006 3c23 0a01 0203 0a09  ...h.>@.<#......
	0x0020:  0807 6c69 7175 616d 2075                 ..liquam.u
IP (tos 0x0, ttl 64, id 63, offset 504, flags [+], proto TCP (6), length 28)
    10.1.2.3 > 10.9.8.7: tcp
	0x0000:  0209 0807 0605 0201 0203 0405 0800 4500  ..............E.
	0x0010:  001c 003f 203f 4006 3c4b 0a01 0203 0a09  ...?.?@.<K......
	0x0020:  0807 6c65 6e74 6573 7175                 ..lentesqu
IP (tos 0x0, ttl 64, id 75, offset 96, flags [+], proto TCP (6), length 28)
    10.1.2.3 > 10.9.8.7: tcp
	0x0000:  0209 0807 0605 0201 0203 0405 0800 4500  ..............E.
	0x0010:  001c 004b 200c 4006 3c72 0a01 0203 0a09  ...K..@.<r......
	0x0020:  0807 6575 6973 6d6f 642e                 ..euismod.
IP (tos 0x0, ttl 64, id 18, offset 448, flags [+], proto TCP (6), length 28)
    10.1.2.3 > 10.9.8.7: tcp
	0x0000:  0209 0807 0605 0201 0203 0405 0800 4500  ..............E.
	0x0010:  001c 0012 2038 4006 3c7f 0a01 0203 0a09  .....8@.<.......
	0x0020:  0807 7220 6964 2065 726f                 ..r.id.ero
IP (tos 0x0, ttl 64, id 127, offset 160, flags [+], proto TCP (6), length 28)
    10.1.2.3 > 10.9.8.7: tcp
	0x0000:  0209 0807 0605 0201 0203 0405 0800 4500  ..............E.
	0x0010:  001c 007f 2014 4006 3c36 0a01 0203 0a09  ......@.<6......
	0x0020:  0807 7569 7320 7175 6973                 ..uis.quis
IP (tos 0x0, ttl 64, id 6, offset 440, flags [+], proto TCP (6), length 28)
    10.1.2.3 > 10.9.8.7: tcp
	0x0000:  0209 0807 0605 0201 0203 0405 0800 4500  ..............E.
	0x0010:  001c 0006 2037 4006 3c8c 0a01 0203 0a09  .....7@.<.......
	0x0020:  0807 7320 6d75 732e 2041                 ..s.mus..A
IP (tos 0x0, ttl 64, id 58, offset 128, flags [+], proto TCP (6), length 28)
    10.1.2.3 > 10.9.8.7: tcp
	0x0000:  0209 0807 0605 0201 0203 0405 0800 4500  ..............E.
	0x0010:  001c 003a 2010 4006 3c7f 0a01 0203 0a09  ...:..@.<.......
	0x0020:  0807 6520 6e69 6268 2076                 ..e.nibh.v
IP (tos 0x0, ttl 64, id 80, offset 168, flags [+], proto TCP (6), length 28)
    10.1.2.3 > 10.9.8.7: tcp
	0x0000:  0209 0807 0605 0201 0203 0405 0800 4500  ..............E.
	0x0010:  001c 0050 2015 4006 3c64 0a01 0203 0a09  ...P..@.<d......
	0x0020:  0807 2e20 4e75 6c6c 6120                 ....Nulla.
IP (tos 0x0, ttl 64, id 14, offset 464, flags [+], proto TCP (6), length 28)
    10.1.2.3 > 10.9.8.7: tcp
	0x0000:  0209 0807 0605 0201 0203 0405 0800 4500  ..............E.
	0x0010:  001c 000e 203a 4006 3c81 0a01 0203 0a09  .....:@.<.......
	0x0020:  0807 7065 7220 6d65 7475                 ..per.metu
IP (tos 0x0, ttl 64, id 107, offset 368, flags [+], proto TCP (6), length 28)
    10.1.2.3 > 10.9.8.7: tcp
	0x0000:  0209 0807 0605 0201 0203 0405 0800 4500  ..............E.
	0x0010:  001c 006b 202e 4006 3c30 0a01 0203 0a09  ...k..@.<0......
	0x0020:  0807 6e69 736c 2069 7073                 ..nisl.ips
IP (tos 0x0, ttl 64, id 90, offset 456, flags [+], proto TCP (6), length 28)
    10.1.2.3 > 10.9.8.7: tcp
	0x0000:  0209 0807 0605 0201 0203 0405 0800 4500  ..............E.
	0x0010:  001c 005a 2039 4006 3c36 0a01 0203 0a09  ...Z.9@.<6......
	0x0020:  0807 7572 2069 6420 6174                 ..ur.id.at
IP (tos 0x0, ttl 64, id 73, offset 160, flags [+], proto TCP (6), length 28)
    10.1.2.3 > 10.9.8.7: tcp
	0x0000:  0209 0807 0605 0201 0203 0405 0800 4500  ..............E.
	0x0010:  001c 0049 2014 4006 3c6c 0a01 0203 0a09  ...I..@.<l......
	0x0020:  0807 2e20 416c 6971 7561                 ....Aliqua
IP (tos 0x0, ttl 64, id 21, offset 136, flags [+], proto TCP (6), length 28)
    10.1.2.3 > 10.9.8.7: tcp
	0x0000:  0209 0807 0605 0201 0203 0405 0800 4500  ..............E.
	0x0010:  001c 0015 2011 4006 3ca3 0a01 0203 0a09  ......@.<.......
	0x0020:  0807 6d63 6f72 7065 7220                 ..mcorper.
IP (tos 0x0, ttl 64, id 52, offset 272, flags [+], proto TCP (6), length 28)
    10.1.2.3 > 10.9.8.7: tcp
	0x0000:  0209 0807 0605 0201 0203 0405 0800 4500  ..............E.
	0x0010:  001c 0034 2022 4006 3c73 0a01 0203 0a09  ...4."@.<s......
	0x0020:  0807 6c69 7420 6120 7075                 ..lit.a.pu
IP (tos 0x0, ttl 64, id 19, offset 328, flags [+], proto TCP (6), length 28)
    10.1.2.3 > 10.9.8.7: tcp
	0x0000:  0209 0807 0605 0201 0203 0405 0800 4500  ..............E.
	0x0010:  001c 0013 2029 4006 3c8d 0a01 0203 0a09  .....)@.<.......
	0x0020:  0807 6e74 756d 2075 7420                 ..ntum.ut.
IP (tos 0x0, ttl 64, id 87, offset 456, flags [+], proto TCP (6), length 28)
    10.1.2.3 > 10.9.8.7: tcp
	0x0000:  0209 0807 0605 0201 0203 0405 0800 4500  ..............E.
	0x0010:  001c 0057 2039 4006 3c39 0a01 0203 0a09  ...W.9@.<9......
	0x0020:  0807 7273 7573 206e 6962                 ..rsus.nib
IP (tos 0x0, ttl 64, id 114, offset 32, flags [+], proto TCP (6), length 28)
    10.1.2.3 > 10.9.8.7: tcp
	0x0000:  0209 0807 0605 0201 0203 0405 0800 4500  ..............E.
	0x0010:  001c 0072 2004 4006 3c53 0a01 0203 0a09  ...r..@.<S......
	0x0020:  0807 5072 6165 7365 6e74                 ..Praesent
IP (tos 0x0, ttl 64, id 71, offset 416, flags [+], proto TCP (6), length 28)
    10.1.2.3 > 10.9.8.7: tcp
	0x0000:  0209 0807 0605 0201 0203 0405 0800 4500  ..............E.
	0x0010:  001c 0047 2034 4006 3c4e 0a01 0203 0a09  ...G.4@.<N......
	0x0020:  0807 2076 656c 6974 2065                 ...velit.e
IP (tos 0x0, ttl 64, id 13, offset 408, flags [+], proto TCP (6), length 28)
    10.1.2.3 > 10.9.8.7: tcp
	0x0000:  0209 0807 0605 0201 0203 0405 0800 4500  ..............E.
	0x0010:  001c 000d 2033 4006 3c89 0a01 0203 0a09  .....3@.<.......
	0x0020:  0807 7261 6269 7475 7220                 ..rabitur.
IP (tos 0x0, ttl 64, id 20, offset 48, flags [+], proto TCP (6), length 28)
    10.1.2.3 > 10.9.8.7: tcp
	0x0000:  0209 0807 0605 0201 0203 0405 0800 4500  ..............E.
	0x0010:  001c 0014 2006 4006 3caf 0a01 0203 0a09  ......@.<.......
	0x0020:  0807 7268 6f6e 6375 7320                 ..rhoncus.
IP (tos 0x0, ttl 64, id 121, offset 384, flags [+], proto TCP (6), length 28)
    10.1.2.3 > 10.9.8.7: tcp
	0x0000:  0209 0807 0605 0201 0203 0405 0800 4500  ..............E.
	0x0010:  001c 0079 2030 4006 3c20 0a01 0203 0a09  ...y.0@.<.......
	0x0020:  0807 7369 7420 616d 6574                 ..sit.amet
IP (tos 0x0, ttl 64, id 105, offset 480, flags [+], proto TCP (6), length 28)
    10.1.2.3 > 10.9.8.7: tcp
	0x0000:  0209 0807 0605 0201 0203 0405 0800 4500  ..............E.
	0x0010:  001c 0069 203c 4006 3c24 0a01 0203 0a09  ...i.<@.<$......
	0x0020:  0807 2069 6420 7365 6d20                 ...id.sem.
IP (tos 0x0, ttl 64, id 119, offset 296, flags [+], proto TCP (6), length 28)
    10.1.2.3 > 10.9.8.7: tcp
	0x0000:  0209 0807 0605 0201 0203 0405 0800 4500  ..............E.
	0x0010:  001c 0077 2025 4006 3c2d 0a01 0203 0a09  ...w.%@.<-......
	0x0020:  0807 4372 6173 2070 6861                 ..Cras.pha
IP (tos 0x0, ttl 64, id 66, offset 448, flags [+], proto TCP (6), length 28)
    10.1.2.3 > 10.9.8.7: tcp
	0x0000:  0209 0807 0605 0201 0203 0405 0800 4500  ..............E.
	0x0010:  001c 0042 2038 4006 3c4f 0a01 0203 0a09  ...B.8@.<O......
	0x0020:  0807 656e 6472 6572 6974                 ..endrerit
IP (tos 0x0, ttl 64, id 13, offset 0, flags [+], proto TCP (6), length 28)
    10.1.2.3.48620 > 10.9.8.7.8: [|tcp]
	0x0000:  0209 0807 0605 0201 0203 0405 0800 4500  ..............E.
	0x0010:  001c 000d 2000 4006 3cbc 0a01 0203 0a09  ......@.<.......
	0x0020:  0807 bdec 0008 0000 1402                 ..........
IP (tos 0x0, ttl 64, id 43, offset 448, flags [+], proto TCP (6), length 28)
    10.1.2.3 > 10.9.8.7: tcp
	0x0000:  0209 0807 0605 0201 0203 0405 0800 4500  ..............E.
	0x0010:  001c 002b 2038 4006 3c66 0a01 0203 0a09  ...+.8@.<f......
	0x0020:  0807 2070 6f73 7565 7265                 ...posuere
IP (tos 0x0, ttl 64, id 106, offset 288, flags [+], proto TCP (6), length 28)
    10.1.2.3 > 10.9.8.7: tcp
	0x0000:  0209 0807 0605 0201 0203 0405 0800 4500  ..............E.
	0x0010:  001c 006a 2024 4006 3c3b 0a01 0203 0a09  ...j.$@.<;......
	0x0020:  0807 6574 7261 206d 6167                 ..etra.mag
IP (tos 0x0, ttl 64, id 20, offset 168, flags [+], proto TCP (6), length 28)
    10.1.2.3 > 10.9.8.7: tcp
	0x0000:  0209 0807 0605 0201 0203 0405 0800 4500  ..............E.
	0x0010:  001c 0014 2015 4006 3ca0 0a01 0203 0a09  ......@.<.......
	0x0020:  0807 6869 6375 6c61 2073                 ..hicula.s
IP (tos 0x0, ttl 64, id 43, offset 64, flags [+], proto TCP (6), length 28)
    10.1.2.3 > 10.9.8.7: tcp
	0x0000:  0209 0807 0605 0201 0203 0405 0800 4500  ..............E.
	0x0010:  001c 002b 2008 4006 3c96 0a01 0203 0a09  ...+..@.<.......
	0x0020:  0807 7175 616d 2c20 636f                 ..quam,.co
IP (tos 0x0, ttl 64, id 64, offset 344, flags [+], proto TCP (6), length 28)
    10.1.2.3 > 10.9.8.7: tcp
	0x0000:  0209 0807 0605 0201 0203 0405 0800 4500  ..............E.
	0x0010:  001c 0040 202b 4006 3c5e 0a01 0203 0a09  ...@.+@.<^......
	0x0020:  0807 2064 6170 6962 7573                 ...dapibus
IP (tos 0x0, ttl 64, id 58, offset 416, flags [+], proto TCP (6), length 28)
    10.1.2.3 > 10.9.8.7: tcp
	0x0000:  0209 0807 0605 0201 0203 0405 0800 4500  ..............E.
	0x0010:  001c 003a 2034 4006 3c5b 0a01 0203 0a09  ...:.4@.<[......
	0x0020:  0807 206d 6167 6e61 2e20                 ...magna..
IP (tos 0x0, ttl 64, id 127, offset 136, flags [+], proto TCP (6), length 28)
    10.1.2.3 > 10.9.8.7: tcp
	0x0000:  0209 0807 0605 0201 0203 0405 0800 4500  ..............E.
	0x0010:  001c 007f 2011 4006 3c39 0a01 0203 0a09  ......@.<9......
	0x0020:  0807 206e 6563 2c20 6c61                 ...nec,.la
IP (tos 0x0, ttl 64, id 13, offset 224, flags [+], proto TCP (6), length 28)
    10.1.2.3 > 10.9.8.7: tcp
	0x0000:  0209 0807 0605 0201 0203 0405 0800 4500  ..............E.
	0x0010:  001c 000d 201c 4006 3ca0 0a01 0203 0a09  ......@.<.......
	0x0020:  0807 6c6c 656e 7465 7371                 ..llentesq
IP (tos 0x0, ttl 64, id 74, offset 288, flags [+], proto TCP (6), length 28)
    10.1.2.3 > 10.9.8.7: tcp
	0x0000:  0209 0807 0605 0201 0203 0405 0800 4500  ..............E.
	0x0010:  001c 004a 2024 4006 3c5b 0a01 0203 0a09  ...J.$@.<[......
	0x0020:  0807 6661 7563 6962 7573                 ..faucibus
IP (tos 0x0, ttl 64, id 65, offset 104, flags [+], proto TCP (6), length 28)
    10.1.2.3 > 10.9.8.7: tcp
	0x0000:  0209 0807 0605 0201 0203 0405 0800 4500  ..............E.
	0x0010:  001c 0041 200d 4006 3c7b 0a01 0203 0a09  ...A..@.<{......
	0x0020:  0807 7465 6e74 692e 2051                 ..tenti..Q
IP (tos 0x0, ttl 64, id 7, offset 432, flags [+], proto TCP (6), length 28)
    10.1.2.3 > 10.9.8.7: tcp
	0x0000:  0209 0807 0605 0201 0203 0405 0800 4500  ..............E.
	0x0010:  001c 0007 2036 4006 3c8c 0a01 0203 0a09  .....6@.<.......
	0x0020:  0807 656d 656e 7475 6d20                 ..ementum.
IP (tos 0x0, ttl 64, id 95, offset 216, flags [+], proto TCP (6), length 28)
    10.1.2.3 > 10.9.8.7: tcp
	0x0000:  0209 0807 0605 0201 0203 0405 0800 4500  ..............E.
	0x0010:  001c 005f 201b 4006 3c4f 0a01 0203 0a09  ..._..@.<O......
	0x0020:  0807 706f 7274 6120 6d61                 ..porta.ma
IP (tos 0x0, ttl 64, id 97, offset 272, flags [+], proto TCP (6), length 28)
    10.1.2.3 > 10.9.8.7: tcp
	0x0000:  0209 0807 0605 0201 0203 0405 0800 4500  ..............E.
	0x0010:  001c 0061 2022 4006 3c46 0a01 0203 0a09  ...a."@.<F......
	0x0020:  0807 6120 766f 6c75 7470                 ..a.volutp
IP (tos 0x0, ttl 64, id 51, offset 144, flags [+], proto TCP (6), length 28)
    10.1.2.3 > 10.9.8.7: tcp
	0x0000:  0209 0807 0605 0201 0203 0405 0800 4500  ..............E.
	0x0010:  001c 0033 2012 4006 3c84 0a01 0203 0a09  ...3..@.<.......
	0x0020:  0807 7073 756d 2076 6974                 ..psum.vit
IP (tos 0x0, ttl 64, id 9, offset 8, flags [+], proto TCP (6), length 28)
    10.1.2.3 > 10.9.8.7: tcp
	0x0000:  0209 0807 0605 0201 0203 0405 0800 4500  ..............E.
	0x0010:  001c 0009 2001 4006 3cbf 0a01 0203 0a09  ......@.<.......
	0x0020:  0807 0000 0002 5010 2000                 ......P...
IP (tos 0x0, ttl 64, id 75, offset 8, flags [+], proto TCP (6), length 28)
    10.1.2.3 > 10.9.8.7: tcp
	0x0000:  0209 0807 0605 0201 0203 0405 0800 4500  ..............E.
	0x0010:  001c 004b 2001 4006 3c7d 0a01 0203 0a09  ...K..@.<}......
	0x0020:  0807 0000 0002 5010 2000                 ......P...
IP (tos 0x0, ttl 64, id 10, offset 192, flags [+], proto TCP (6), length 28)
    10.1.2.3 > 10.9.8.7: tcp
	0x0000:  0209 0807 0605 0201 0203 0405 0800 4500  ..............E.
	0x0010:  001c 000a 2018 4006 3ca7 0a01 0203 0a09  ......@.<.......
	0x0020:  0807 7320 636f 6e67 7565                 ..s.congue
IP (tos 0x0, ttl 64, id 47, offset 208, flags [+], proto TCP (6), length 28)
    10.1.2.3 > 10.9.8.7: tcp
	0x0000:  0209 0807 0605 0201 0203 0405 0800 4500  ..............E.
	0x0010:  001c 002f 201a 4006 3c80 0a01 0203 0a09  .../..@.<.......
	0x0020:  0807 206d 6175 7269 732c                 ...mauris,
IP (tos 0x0, ttl 64, id 101, offset 80, flags [+], proto TCP (6), length 28)
    10.1.2.3 > 10.9.8.7: tcp
	0x0000:  0209 0807 0605 0201 0203 0405 0800 4500  ..............E.
	0x0010:  001c 0065 200a 4006 3c5a 0a01 0203 0a09  ...e..@.<Z......
	0x0020:  0807 6665 726d 656e 7475                 ..fermentu
IP (tos 0x0, ttl 64, id 115, offset 496, flags [+], proto TCP (6), length 28)
    10.1.2.3 > 10.9.8.7: tcp
	0x0000:  0209 0807 0605 0201 0203 0405 0800 4500  ..............E.
	0x0010:  001c 0073 203e 4006 3c18 0a01 0203 0a09  ...s.>@.<.......
	0x0020:  0807 696e 6172 2072 6973                 ..inar.ris
IP (tos 0x0, ttl 64, id 121, offset 32, flags [+], proto TCP (6), length 28)
    10.1.2.3 > 10.9.8.7: tcp
	0x0000:  0209 0807 0605 0201 0203 0405 0800 4500  ..............E.
	0x0010:  001c 0079 2004 4006 3c4c 0a01 0203 0a09  ...y..@.<L......
	0x0020:  0807 6172 6520 6174 2c20                 ..are.at,.
IP (tos 0x0, ttl 64, id 70, offset 232, flags [+], proto TCP (6), length 28)
    10.1.2.3 > 10.9.8.7: tcp
	0x0000:  0209 0807 0605 0201 0203 0405 0800 4500  ..............E.
	0x0010:  001c 0046 201d 4006 3c66 0a01 0203 0a09  ...F..@.<f......
	0x0020:  0807 7573 746f 2068 656e                 ..usto.hen
IP (tos 0x0, ttl 64, id 68, offset 200, flags [+], proto TCP (6), length 28)
    10.1.2.3 > 10.9.8.7: tcp
	0x0000:  0209 0807 0605 0201 0203 0405 0800 4500  ..............E.
	0x0010:  001c 0044 2019 4006 3c6c 0a01 0203 0a09  ...D..@.<l......
	0x0020:  0807 656e 6174 6973 2e20                 ..enatis..
IP (tos 0x0, ttl 64, id 26, offset 80, flags [+], proto TCP (6), length 28)
    10.1.2.3 > 10.9.8.7: tcp
	0x0000:  0209 0807 0605 0201 0203 0405 0800 4500  ..............E.
	0x0010:  001c 001a 200a 4006 3ca5 0a01 0203 0a09  ......@.<.......
	0x0020:  0807 2072 6973 7573 206e                 ...risus.n
IP (tos 0x0, ttl 64, id 4, offset 312, flags [+], proto TCP (6), length 28)
    10.1.2.3 > 10.9.8.7: tcp
	0x0000:  0209 0807 0605 0201 0203 0405 0800 4500  ..............E.
	0x0010:  001c 0004 2027 4006 3c9e 0a01 0203 0a09  .....'@.<.......
	0x0020:  0807 2070 6c61 7465 6120                 ...platea.
IP (tos 0x0, ttl 64, id 86, offset 304, flags [+], proto TCP (6), length 28)
    10.1.2.3 > 10.9.8.7: tcp
	0x0000:  0209 0807 0605 0201 0203 0405 0800 4500  ..............E.
	0x0010:  001c 0056 2026 4006 3c4d 0a01 0203 0a09  ...V.&@.<M......
	0x0020:  0807 7420 6c6f 7265 6d20                 ..t.lorem.
IP (tos 0x0, ttl 64, id 67, offset 320, flags [+], proto TCP (6), length 28)
    10.1.2.3 > 10.9.8.7: tcp
	0x0000:  0209 0807 0605 0201 0203 0405 0800 4500  ..............E.
	0x0010:  001c 0043 2028 4006 3c5e 0a01 0203 0a09  ...C.(@.<^......
	0x0020:  0807 616c 6971 7561 6d20                 ..aliquam.
IP (tos 0x0, ttl 64, id 19, offset 232, flags [+], proto TCP (6), length 28)
    10.1.2.3 > 10.9.8.7: tcp
	0x0000:  0209 0807 0605 0201 0203 0405 0800 4500  ..............E.
	0x0010:  001c 0013 201d 4006 3c99 0a01 0203 0a09  ......@.<.......
	0x0020:  0807 6e64 6973 7365 2070                 ..ndisse.p
IP (tos 0x0, ttl 64, id 113, offset 512, flags [+], proto TCP (6), length 28)
    10.1.2.3 > 10.9.8.7: tcp
	0x0000:  0209 0807 0605 0201 0203 0405 0800 4500  ..............E.
	0x0010:  001c 0071 2040 4006 3c18 0a01 0203 0a09  ...q.@@.<.......
	0x0020:  0807 6170 6962 7573 2069                 ..apibus.i
IP (tos 0x0, ttl 64, id 95, offset 192, flags [+], proto TCP (6), length 28)
    10.1.2.3 > 10.9.8.7: tcp
	0x0000:  0209 0807 0605 0201 0203 0405 0800 4500  ..............E.
	0x0010:  001c 005f 2018 4006 3c52 0a01 0203 0a09  ..._..@.<R......
	0x0020:  0807 2076 6568 6963 756c                 ...vehicul
IP (tos 0x0, ttl 64, id 109, offset 280, flags [+], proto TCP (6), length 28)
    10.1.2.3 > 10.9.8.7: tcp
	0x0000:  0209 0807 0605 0201 0203 0405 0800 4500  ..............E.
	0x0010:  001c 006d 2023 4006 3c39 0a01 0203 0a09  ...m.#@.<9......
	0x0020:  0807 656d 656e 7475 6d20                 ..ementum.
IP (tos 0x0, ttl 64, id 84, offset 16, flags [+], proto TCP (6), length 28)
    10.1.2.3 > 10.9.8.7: tcp
	0x0000:  0209 0807 0605 0201 0203 0405 0800 4500  ..............E.
	0x0010:  001c 0054 2002 4006 3c73 0a01 0203 0a09  ...T..@.<s......
	0x0020:  0807 4134 0000 6572 2076                 ..A4..er.v
IP (tos 0x0, ttl 64, id 14, offset 224, flags [+], proto TCP (6), length 28)
    10.1.2.3 > 10.9.8.7: tcp
	0x0000:  0209 0807 0605 0201 0203 0405 0800 4500  ..............E.
	0x0010:  001c 000e 201c 4006 3c9f 0a01 0203 0a09  ......@.<.......
	0x0020:  0807 2069 6e20 6c6f 7265                 ...in.lore
IP (tos 0x0, ttl 64, id 80, offset 120, flags [+], proto TCP (6), length 28)
    10.1.2.3 > 10.9.8.7: tcp
	0x0000:  0209 0807 0605 0201 0203 0405 0800 4500  ..............E.
	0x0010:  001c 0050 200f 4006 3c6a 0a01 0203 0a09  ...P..@.<j......
	0x0020:  0807 7573 2061 6e74 6520                 ..us.ante.
IP (tos 0x0, ttl 64, id 79, offset 32, flags [+], proto TCP (6), length 28)
    10.1.2.3 > 10.9.8.7: tcp
	0x0000:  0209 0807 0605 0201 0203 0405 0800 4500  ..............E.
	0x0010:  001c 004f 2004 4006 3c76 0a01 0203 0a09  ...O..@.<v......
	0x0020:  0807 6d65 7475 7320 7175                 ..metus.qu
IP (tos 0x0, ttl 64, id 127, offset 216, flags [+], proto TCP (6), length 28)
    10.1.2.3 > 10.9.8.7: tcp
	0x0000:  0209 0807 0605 0201 0203 0405 0800 4500  ..............E.
	0x0010:  001c 007f 201b 4006 3c2f 0a01 0203 0a09  ......@.</......
	0x0020:  0807 6962 756c 756d 2073                 ..ibulum.s
IP (tos 0x0, ttl 64, id 68, offset 480, flags [+], proto TCP (6), length 28)
    10.1.2.3 > 10.9.8.7: tcp
	0x0000:  0209 0807 0605 0201 0203 0405 0800 4500  ..............E.
	0x0010:  001c 0044 203c 4006 3c49 0a01 0203 0a09  ...D.<@.<I......
	0x0020:  0807 752e 2056 6976 616d                 ..u..Vivam
IP (tos 0x0, ttl 64, id 27, offset 224, flags [+], proto TCP (6), length 28)
    10.1.2.3 > 10.9.8.7: tcp
	0x0000:  0209 0807 0605 0201 0203 0405 0800 4500  ..............E.
	0x0010:  001c 001b 201c 4006 3c92 0a01 0203 0a09  ......@.<.......
	0x0020:  0807 6174 2074 656d 706f                 ..at.tempo
IP (tos 0x0, ttl 64, id 33, offset 416, flags [+], proto TCP (6), length 28)
    10.1.2.3 > 10.9.8.7: tcp
	0x0000:  0209 0807 0605 0201 0203 0405 0800 4500  ..............E.
