IP (tos 0x10, ttl 63, id 1, offset 0, flags [none], proto UDP (17), length 92)
    76.0.0.10.48620 > 4.4.4.10.8: UDP, length 64
	0x0000:  0209 0807 0605 0201 0203 0405 0800 4510  ..............E.
	0x0010:  005c 0001 0000 3f11 2769 4c00 000a 0404  .\....?.'iL.....
	0x0020:  040a bdec 0008 0048 4ccd 3132 3334 3536  .......HL.123456
	0x0030:  3738 3930 3132 3334 3536 3738 3930 3132  7890123456789012
	0x0040:  3334 3536 3738 3930 3132 3334 3536 3738  3456789012345678
	0x0050:  3930 3132 3334 3536 3738 3930 3132 3334  9012345678901234
	0x0060:  3536 3738 3930 3132 3334                 5678901234
