IP (tos 0x0, ttl 64, id 1, offset 0, flags [none], proto TCP (6), length 40)
    10.1.2.3.48620 > 10.9.8.7.8: Flags [S], cksum 0xb3d9 (correct), seq 1, win 8192, length 0
	0x0000:  0209 0807 0605 0201 0203 0405 0800 4500  ..............E.
	0x0010:  0028 0001 0000 4006 5cbc 0a01 0203 0a09  .(....@.\.......
	0x0020:  0807 bdec 0008 0000 0001 0000 0000 5002  ..............P.
	0x0030:  2000 b3d9 0000                           ......
IP (tos 0x0, ttl 64, id 1, offset 0, flags [none], proto TCP (6), length 40)
    10.9.8.7.8 > 10.1.2.3.48620: Flags [S.], cksum 0xb3c7 (correct), seq 1, ack 2, win 8192, length 0
	0x0000:  0201 0203 0405 0209 0807 0605 0800 4500  ..............E.
	0x0010:  0028 0001 0000 4006 5cbc 0a09 0807 0a01  .(....@.\.......
	0x0020:  0203 0008 bdec 0000 0001 0000 0002 5012  ..............P.
	0x0030:  2000 b3c7 0000                           ......
IP (tos 0x0, ttl 64, id 2, offset 0, flags [none], proto TCP (6), length 40)
    10.1.2.3.48620 > 10.9.8.7.8: Flags [.], cksum 0xb3c8 (correct), ack 1, win 8192, length 0
	0x0000:  0209 0807 0605 0201 0203 0405 0800 4500  ..............E.
	0x0010:  0028 0002 0000 4006 5cbb 0a01 0203 0a09  .(....@.\.......
	0x0020:  0807 bdec 0008 0000 0002 0000 0002 5010  ..............P.
	0x0030:  2000 b3c8 0000                           ......
IP (tos 0x0, ttl 64, id 20, offset 0, flags [none], proto TCP (6), length 140)
    10.1.2.3.48620 > 10.9.8.7.8: Flags [.], cksum 0x44e5 (correct), seq 1701:1801, ack 1, win 8192, length 100
	0x0000:  0209 0807 0605 0201 0203 0405 0800 4500  ..............E.
	0x0010:  008c 0014 0000 4006 5c45 0a01 0203 0a09  ......@.\E......
	0x0020:  0807 bdec 0008 0000 06a6 0000 0002 5010  ..............P.
	0x0030:  2000 44e5 0000 656c 6973 2075 6c6c 616d  ..D...elis.ullam
	0x0040:  636f 7270 6572 2061 632e 2053 6564 2068  corper.ac..Sed.h
	0x0050:  656e 6472 6572 6974 206c 6163 7573 2076  endrerit.lacus.v
	0x0060:  6974 6165 206d 6175 7269 7320 636f 6e73  itae.mauris.cons
	0x0070:  6571 7561 7420 6e6f 6e20 6c61 6f72 6565  equat.non.laoree
	0x0080:  7420 6d65 7475 7320 636f 6e67 7565 2e20  t.metus.congue..
	0x0090:  4e75 6c6c 6120 6661 6369                 Nulla.faci
IP (tos 0x0, ttl 64, id 6, offset 0, flags [none], proto TCP (6), length 140)
    10.1.2.3.48620 > 10.9.8.7.8: Flags [.], cksum 0x2ece (correct), seq 301:401, ack 1, win 8192, length 100
	0x0000:  0209 0807 0605 0201 0203 0405 0800 4500  ..............E.
	0x0010:  008c 0006 0000 4006 5c53 0a01 0203 0a09  ......@.\S......
	0x0020:  0807 bdec 0008 0000 012e 0000 0002 5010  ..............P.
	0x0030:  2000 2ece 0000 6573 7420 7065 6c6c 656e  ......est.pellen
	0x0040:  7465 7371 7565 2e20 4d61 6563 656e 6173  tesque..Maecenas
	0x0050:  2075 7420 6665 6c69 7320 6573 742c 2073  .ut.felis.est,.s
	0x0060:  6564 2069 6e74 6572 6475 6d20 6c6f 7265  ed.interdum.lore
	0x0070:  6d2e 2043 7261 7320 6175 6374 6f72 2c20  m..Cras.auctor,.
	0x0080:  6970 7375 6d20 7669 7461 6520 7665 6e65  ipsum.vitae.vene
	0x0090:  6e61 7469 7320 6661 7563                 natis.fauc
IP (tos 0x0, ttl 64, id 17, offset 0, flags [none], proto TCP (6), length 140)
    10.1.2.3.48620 > 10.9.8.7.8: Flags [.], cksum 0x93bd (correct), seq 1401:1501, ack 1, win 8192, length 100
	0x0000:  0209 0807 0605 0201 0203 0405 0800 4500  ..............E.
	0x0010:  008c 0011 0000 4006 5c48 0a01 0203 0a09  ......@.\H......
	0x0020:  0807 bdec 0008 0000 057a 0000 0002 5010  .........z....P.
	0x0030:  2000 93bd 0000 6d20 6d61 7572 6973 2c20  ......m.mauris,.
	0x0040:  6575 2073 6167 6974 7469 7320 7361 7069  eu.sagittis.sapi
	0x0050:  656e 2e20 4165 6e65 616e 206e 6962 6820  en..Aenean.nibh.
	0x0060:  6d65 7475 732c 206c 6f62 6f72 7469 7320  metus,.lobortis.
	0x0070:  7365 6420 6665 7567 6961 7420 7574 2c20  sed.feugiat.ut,.
	0x0080:  6665 726d 656e 7475 6d20 7669 7461 6520  fermentum.vitae.
	0x0090:  6e69 6268 2e20 4372 6173                 nibh..Cras
IP (tos 0x0, ttl 64, id 12, offset 0, flags [none], proto TCP (6), length 140)
    10.1.2.3.48620 > 10.9.8.7.8: Flags [.], cksum 0xa5d8 (correct), seq 901:1001, ack 1, win 8192, length 100
	0x0000:  0209 0807 0605 0201 0203 0405 0800 4500  ..............E.
	0x0010:  008c 000c 0000 4006 5c4d 0a01 0203 0a09  ......@.\M......
	0x0020:  0807 bdec 0008 0000 0386 0000 0002 5010  ..............P.
	0x0030:  2000 a5d8 0000 7573 206e 756e 632c 2066  ......us.nunc,.f
	0x0040:  7269 6e67 696c 6c61 2061 2074 696e 6369  ringilla.a.tinci
	0x0050:  6475 6e74 2069 642c 206d 616c 6573 7561  dunt.id,.malesua
	0x0060:  6461 2061 7420 7361 7069 656e 2e20 4372  da.at.sapien..Cr
	0x0070:  6173 2076 6974 6165 206d 6574 7573 206a  as.vitae.metus.j
	0x0080:  7573 746f 2c20 6964 2061 7563 746f 7220  usto,.id.auctor.
	0x0090:  6d65 7475 732e 2043 7572                 metus..Cur
IP (tos 0x0, ttl 64, id 19, offset 0, flags [none], proto TCP (6), length 140)
    10.1.2.3.48620 > 10.9.8.7.8: Flags [.], cksum 0x7e33 (correct), seq 1601:1701, ack 1, win 8192, length 100
	0x0000:  0209 0807 0605 0201 0203 0405 0800 4500  ..............E.
	0x0010:  008c 0013 0000 4006 5c46 0a01 0203 0a09  ......@.\F......
	0x0020:  0807 bdec 0008 0000 0642 0000 0002 5010  .........B....P.
	0x0030:  2000 7e33 0000 2e20 4e75 6e63 2069 6e20  ..~3....Nunc.in.
	0x0040:  6c69 6265 726f 2061 2061 7567 7565 2076  libero.a.augue.v
	0x0050:  6573 7469 6275 6c75 6d20 6163 6375 6d73  estibulum.accums
	0x0060:  616e 2061 7420 7574 2064 6961 6d2e 2043  an.at.ut.diam..C
	0x0070:  7261 7320 6469 676e 6973 7369 6d20 6661  ras.dignissim.fa
	0x0080:  6369 6c69 7369 7320 7269 7375 732c 2069  cilisis.risus,.i
	0x0090:  6e20 6469 6374 756d 2066                 n.dictum.f
IP (tos 0x0, ttl 64, id 4, offset 0, flags [none], proto TCP (6), length 140)
    10.1.2.3.48620 > 10.9.8.7.8: Flags [.], cksum 0xb874 (correct), seq 101:201, ack 1, win 8192, length 100
	0x0000:  0209 0807 0605 0201 0203 0405 0800 4500  ..............E.
	0x0010:  008c 0004 0000 4006 5c55 0a01 0203 0a09  ......@.\U......
	0x0020:  0807 bdec 0008 0000 0066 0000 0002 5010  .........f....P.
	0x0030:  2000 b874 0000 6573 2c20 6e69 7369 206e  ...t..es,.nisi.n
	0x0040:  756c 6c61 2066 6572 6d65 6e74 756d 206f  ulla.fermentum.o
	0x0050:  7263 692c 2061 2069 6d70 6572 6469 6574  rci,.a.imperdiet
	0x0060:  206c 6163 7573 2065 6e69 6d20 6120 6665  .lacus.enim.a.fe
	0x0070:  6c69 732e 2043 756d 2073 6f63 6969 7320  lis..Cum.sociis.
	0x0080:  6e61 746f 7175 6520 7065 6e61 7469 6275  natoque.penatibu
	0x0090:  7320 6574 206d 6167 6e69                 s.et.magni
IP (tos 0x0, ttl 64, id 7, offset 0, flags [none], proto TCP (6), length 140)
    10.1.2.3.48620 > 10.9.8.7.8: Flags [.], cksum 0x1b41 (correct), seq 401:501, ack 1, win 8192, length 100
	0x0000:  0209 0807 0605 0201 0203 0405 0800 4500  ..............E.
	0x0010:  008c 0007 0000 4006 5c52 0a01 0203 0a09  ......@.\R......
	0x0020:  0807 bdec 0008 0000 0192 0000 0002 5010  ..............P.
	0x0030:  2000 1b41 0000 6962 7573 2c20 6e75 6e63  ...A..ibus,.nunc
	0x0040:  206d 6173 7361 2066 6572 6d65 6e74 756d  .massa.fermentum
	0x0050:  2061 7567 7565 2c20 7669 7461 6520 756c  .augue,.vitae.ul
	0x0060:  6c61 6d63 6f72 7065 7220 7075 7275 7320  lamcorper.purus.
	0x0070:  6665 6c69 7320 7175 6973 2061 6e74 652e  felis.quis.ante.
	0x0080:  2046 7573 6365 2066 6575 6769 6174 2065  .Fusce.feugiat.e
	0x0090:  6e69 6d20 7574 206e 756e                 nim.ut.nun
IP (tos 0x0, ttl 64, id 24, offset 0, flags [none], proto TCP (6), length 140)
    10.1.2.3.48620 > 10.9.8.7.8: Flags [.], cksum 0x42cf (correct), seq 2101:2201, ack 1, win 8192, length 100
	0x0000:  0209 0807 0605 0201 0203 0405 0800 4500  ..............E.
	0x0010:  008c 0018 0000 4006 5c41 0a01 0203 0a09  ......@.\A......
	0x0020:  0807 bdec 0008 0000 0836 0000 0002 5010  .........6....P.
	0x0030:  2000 42cf 0000 6f6c 6c69 6369 7475 6469  ..B...ollicitudi
	0x0040:  6e20 612c 2074 7269 7374 6971 7565 2071  n.a,.tristique.q
	0x0050:  7569 7320 6469 616d 2e20 446f 6e65 6320  uis.diam..Donec.
	0x0060:  6661 7563 6962 7573 2064 6963 7475 6d20  faucibus.dictum.
	0x0070:  6c69 6265 726f 2073 6564 206d 6f6c 6573  libero.sed.moles
	0x0080:  7469 652e 2049 6e74 6567 6572 2070 6f72  tie..Integer.por
	0x0090:  7461 2c20 6573 7420 6964                 ta,.est.id
IP (tos 0x0, ttl 64, id 23, offset 0, flags [none], proto TCP (6), length 140)
    10.1.2.3.48620 > 10.9.8.7.8: Flags [.], cksum 0x0579 (correct), seq 2001:2101, ack 1, win 8192, length 100
	0x0000:  0209 0807 0605 0201 0203 0405 0800 4500  ..............E.
	0x0010:  008c 0017 0000 4006 5c42 0a01 0203 0a09  ......@.\B......
	0x0020:  0807 bdec 0008 0000 07d2 0000 0002 5010  ..............P.
	0x0030:  2000 0579 0000 7574 7061 7420 6574 2c20  ...y..utpat.et,.
	0x0040:  616c 6971 7561 6d20 6120 6d61 7373 612e  aliquam.a.massa.
	0x0050:  2050 726f 696e 206e 6f6e 206d 6173 7361  .Proin.non.massa
	0x0060:  206c 6962 6572 6f2c 206c 6163 696e 6961  .libero,.lacinia
	0x0070:  2075 6c74 7269 6365 7320 7572 6e61 2e20  .ultrices.urna..
	0x0080:  5574 206f 7263 6920 646f 6c6f 722c 2065  Ut.orci.dolor,.e
	0x0090:  7569 736d 6f64 2061 2073                 uismod.a.s
IP (tos 0x0, ttl 64, id 22, offset 0, flags [none], proto TCP (6), length 140)
    10.1.2.3.48620 > 10.9.8.7.8: Flags [.], cksum 0x4ef1 (correct), seq 1901:2001, ack 1, win 8192, length 100
	0x0000:  0209 0807 0605 0201 0203 0405 0800 4500  ..............E.
	0x0010:  008c 0016 0000 4006 5c43 0a01 0203 0a09  ......@.\C......
	0x0020:  0807 bdec 0008 0000 076e 0000 0002 5010  .........n....P.
	0x0030:  2000 4ef1 0000 7469 6275 7320 6574 206d  ..N...tibus.et.m
	0x0040:  6167 6e69 7320 6469 7320 7061 7274 7572  agnis.dis.partur
	0x0050:  6965 6e74 206d 6f6e 7465 732c 206e 6173  ient.montes,.nas
	0x0060:  6365 7475 7220 7269 6469 6375 6c75 7320  cetur.ridiculus.
	0x0070:  6d75 732e 2041 656e 6561 6e20 6175 6775  mus..Aenean.augu
	0x0080:  6520 7475 7270 6973 2c20 6d61 6c65 7375  e.turpis,.malesu
	0x0090:  6164 6120 6163 2076 6f6c                 ada.ac.vol
IP (tos 0x0, ttl 64, id 26, offset 0, flags [none], proto TCP (6), length 140)
    10.1.2.3.48620 > 10.9.8.7.8: Flags [.], cksum 0xb172 (correct), seq 2301:2401, ack 1, win 8192, length 100
	0x0000:  0209 0807 0605 0201 0203 0405 0800 4500  ..............E.
	0x0010:  008c 001a 0000 4006 5c3f 0a01 0203 0a09  ......@.\?......
	0x0020:  0807 bdec 0008 0000 08fe 0000 0002 5010  ..............P.
	0x0030:  2000 b172 0000 6374 7573 2069 6e20 746f  ...r..ctus.in.to
	0x0040:  7274 6f72 2061 7563 746f 7220 6575 6973  rtor.auctor.euis
	0x0050:  6d6f 642e 2046 7573 6365 2069 6e20 7665  mod..Fusce.in.ve
	0x0060:  6c69 7420 6163 206d 6175 7269 7320 6d6f  lit.ac.mauris.mo
	0x0070:  6c65 7374 6965 2076 6172 6975 7320 6575  lestie.varius.eu
	0x0080:  2071 7569 7320 6970 7375 6d2e 2050 7261  .quis.ipsum..Pra
	0x0090:  6573 656e 7420 7365 6420                 esent.sed.
IP (tos 0x0, ttl 64, id 21, offset 0, flags [none], proto TCP (6), length 140)
    10.1.2.3.48620 > 10.9.8.7.8: Flags [.], cksum 0x0cb8 (correct), seq 1801:1901, ack 1, win 8192, length 100
	0x0000:  0209 0807 0605 0201 0203 0405 0800 4500  ..............E.
	0x0010:  008c 0015 0000 4006 5c44 0a01 0203 0a09  ......@.\D......
	0x0020:  0807 bdec 0008 0000 070a 0000 0002 5010  ..............P.
	0x0030:  2000 0cb8 0000 6c69 7369 2e20 4e61 6d20  ......lisi..Nam.
	0x0040:  7574 2064 6f6c 6f72 2065 6c69 742c 2065  ut.dolor.elit,.e
	0x0050:  7420 6772 6176 6964 6120 6e69 7369 2e20  t.gravida.nisi..
	0x0060:  5068 6173 656c 6c75 7320 6961 6375 6c69  Phasellus.iaculi
	0x0070:  7320 756c 7472 6963 6573 2070 6f72 7461  s.ultrices.porta
	0x0080:  2e20 2043 756d 2073 6f63 6969 7320 6e61  ...Cum.sociis.na
	0x0090:  746f 7175 6520 7065 6e61                 toque.pena
IP (tos 0x0, ttl 64, id 10, offset 0, flags [none], proto TCP (6), length 140)
    10.1.2.3.48620 > 10.9.8.7.8: Flags [.], cksum 0x17bf (correct), seq 701:801, ack 1, win 8192, length 100
	0x0000:  0209 0807 0605 0201 0203 0405 0800 4500  ..............E.
	0x0010:  008c 000a 0000 4006 5c4f 0a01 0203 0a09  ......@.\O......
	0x0020:  0807 bdec 0008 0000 02be 0000 0002 5010  ..............P.
	0x0030:  2000 17bf 0000 7420 696d 7065 7264 6965  ......t.imperdie
	0x0040:  7420 6120 7665 6c20 6d61 676e 612e 2053  t.a.vel.magna..S
	0x0050:  7573 7065 6e64 6973 7365 206c 7563 7475  uspendisse.luctu
	0x0060:  7320 636f 6e67 7565 2069 6d70 6572 6469  s.congue.imperdi
	0x0070:  6574 2e20 446f 6e65 6320 7365 6420 7361  et..Donec.sed.sa
	0x0080:  6769 7474 6973 206c 6f72 656d 2e20 496e  gittis.lorem..In
	0x0090:  2068 6163 2068 6162 6974                 .hac.habit
IP (tos 0x0, ttl 64, id 3, offset 0, flags [none], proto TCP (6), length 140)
    10.1.2.3.48620 > 10.9.8.7.8: Flags [.], cksum 0x9fe2 (correct), seq 1:101, ack 1, win 8192, length 100
	0x0000:  0209 0807 0605 0201 0203 0405 0800 4500  ..............E.
	0x0010:  008c 0003 0000 4006 5c56 0a01 0203 0a09  ......@.\V......
	0x0020:  0807 bdec 0008 0000 0002 0000 0002 5010  ..............P.
	0x0030:  2000 9fe2 0000 4c6f 7265 6d20 6970 7375  ......Lorem.ipsu
	0x0040:  6d20 646f 6c6f 7220 7369 7420 616d 6574  m.dolor.sit.amet
	0x0050:  2c20 636f 6e73 6563 7465 7475 7220 6164  ,.consectetur.ad
	0x0060:  6970 6973 6369 6e67 2065 6c69 742e 2045  ipiscing.elit..E
	0x0070:  7469 616d 2073 7573 6369 7069 742c 2071  tiam.suscipit,.q
	0x0080:  7561 6d20 6174 2073 6365 6c65 7269 7371  uam.at.scelerisq
	0x0090:  7565 2075 6c74 7269 6369                 ue.ultrici
IP (tos 0x0, ttl 64, id 8, offset 0, flags [none], proto TCP (6), length 140)
    10.1.2.3.48620 > 10.9.8.7.8: Flags [.], cksum 0xed84 (correct), seq 501:601, ack 1, win 8192, length 100
	0x0000:  0209 0807 0605 0201 0203 0405 0800 4500  ..............E.
	0x0010:  008c 0008 0000 4006 5c51 0a01 0203 0a09  ......@.\Q......
	0x0020:  0807 bdec 0008 0000 01f6 0000 0002 5010  ..............P.
	0x0030:  2000 ed84 0000 6320 636f 6e73 6563 7465  ......c.consecte
	0x0040:  7475 7220 6964 2075 6c74 7269 6369 6573  tur.id.ultricies
	0x0050:  2074 6f72 746f 7220 6c6f 626f 7274 6973  .tortor.lobortis
	0x0060:  2e20 4d61 6563 656e 6173 2069 6e20 6f72  ..Maecenas.in.or
	0x0070:  6369 206d 6574 7573 2c20 6e6f 6e20 696e  ci.metus,.non.in
	0x0080:  7465 7264 756d 206e 6571 7565 2e20 5065  terdum.neque..Pe
	0x0090:  6c6c 656e 7465 7371 7565                 llentesque
IP (tos 0x0, ttl 64, id 5, offset 0, flags [none], proto TCP (6), length 140)
    10.1.2.3.48620 > 10.9.8.7.8: Flags [.], cksum 0x15ba (correct), seq 201:301, ack 1, win 8192, length 100
	0x0000:  0209 0807 0605 0201 0203 0405 0800 4500  ..............E.
	0x0010:  008c 0005 0000 4006 5c54 0a01 0203 0a09  ......@.\T......
	0x0020:  0807 bdec 0008 0000 00ca 0000 0002 5010  ..............P.
	0x0030:  2000 15ba 0000 7320 6469 7320 7061 7274  ......s.dis.part
	0x0040:  7572 6965 6e74 206d 6f6e 7465 732c 206e  urient.montes,.n
	0x0050:  6173 6365 7475 7220 7269 6469 6375 6c75  ascetur.ridiculu
	0x0060:  7320 6d75 732e 204e 756c 6c61 6d20 6461  s.mus..Nullam.da
	0x0070:  7069 6275 7320 7269 7375 7320 696e 2064  pibus.risus.in.d
	0x0080:  6f6c 6f72 2069 6163 756c 6973 2071 7569  olor.iaculis.qui
	0x0090:  7320 6c61 6369 6e69 6120                 s.lacinia.
IP (tos 0x0, ttl 64, id 27, offset 0, flags [none], proto TCP (6), length 140)
    10.1.2.3.48620 > 10.9.8.7.8: Flags [.], cksum 0xc8be (correct), seq 2401:2501, ack 1, win 8192, length 100
	0x0000:  0209 0807 0605 0201 0203 0405 0800 4500  ..............E.
	0x0010:  008c 001b 0000 4006 5c3e 0a01 0203 0a09  ......@.\>......
	0x0020:  0807 bdec 0008 0000 0962 0000 0002 5010  .........b....P.
	0x0030:  2000 c8be 0000 6c65 6f20 6c69 6265 726f  ......leo.libero
	0x0040:  2c20 6575 2073 6f6c 6c69 6369 7475 6469  ,.eu.sollicitudi
	0x0050:  6e20 7365 6d2e 2020 4d61 7572 6973 2075  n.sem...Mauris.u
	0x0060:  7420 6e69 736c 2069 6420 6665 6c69 7320  t.nisl.id.felis.
	0x0070:  656c 656d 656e 7475 6d20 6772 6176 6964  elementum.gravid
	0x0080:  6120 7365 6420 7369 7420 616d 6574 206c  a.sed.sit.amet.l
	0x0090:  6962 6572 6f2e 2045 7469                 ibero..Eti
IP (tos 0x0, ttl 64, id 14, offset 0, flags [none], proto TCP (6), length 140)
    10.1.2.3.48620 > 10.9.8.7.8: Flags [.], cksum 0x01c8 (correct), seq 1101:1201, ack 1, win 8192, length 100
	0x0000:  0209 0807 0605 0201 0203 0405 0800 4500  ..............E.
	0x0010:  008c 000e 0000 4006 5c4b 0a01 0203 0a09  ......@.\K......
	0x0020:  0807 bdec 0008 0000 044e 0000 0002 5010  .........N....P.
	0x0030:  2000 01c8 0000 7269 7374 6971 7565 2e20  ......ristique..
	0x0040:  446f 6e65 6320 6572 6f73 206e 6973 6c2c  Donec.eros.nisl,
	0x0050:  2073 656d 7065 7220 6574 206c 6163 696e  .semper.et.lacin
	0x0060:  6961 2061 2c20 7465 6d70 7573 2069 6420  ia.a,.tempus.id.
	0x0070:  6469 616d 2e20 4372 6173 206e 6f6e 2074  diam..Cras.non.t
	0x0080:  656c 6c75 7320 6e6f 6e20 7365 6d20 636f  ellus.non.sem.co
	0x0090:  6e67 7565 206d 6f6c 6c69                 ngue.molli
IP (tos 0x0, ttl 64, id 15, offset 0, flags [none], proto TCP (6), length 140)
    10.1.2.3.48620 > 10.9.8.7.8: Flags [.], cksum 0xd755 (correct), seq 1201:1301, ack 1, win 8192, length 100
	0x0000:  0209 0807 0605 0201 0203 0405 0800 4500  ..............E.
	0x0010:  008c 000f 0000 4006 5c4a 0a01 0203 0a09  ......@.\J......
	0x0020:  0807 bdec 0008 0000 04b2 0000 0002 5010  ..............P.
	0x0030:  2000 d755 0000 7320 6e6f 6e20 7574 206d  ...U..s.non.ut.m
	0x0040:  692e 2044 7569 7320 6469 616d 2066 656c  i..Duis.diam.fel
	0x0050:  6973 2c20 6375 7273 7573 206e 6f6e 2073  is,.cursus.non.s
	0x0060:  7573 6369 7069 7420 6e6f 6e2c 206d 6f6c  uscipit.non,.mol
	0x0070:  6573 7469 6520 7669 7461 6520 7465 6c6c  estie.vitae.tell
	0x0080:  7573 2e20 446f 6e65 6320 6661 6369 6c69  us..Donec.facili
	0x0090:  7369 7320 6475 6920 6574                 sis.dui.et
IP (tos 0x0, ttl 64, id 13, offset 0, flags [none], proto TCP (6), length 140)
    10.1.2.3.48620 > 10.9.8.7.8: Flags [.], cksum 0x56b1 (correct), seq 1001:1101, ack 1, win 8192, length 100
	0x0000:  0209 0807 0605 0201 0203 0405 0800 4500  ..............E.
	0x0010:  008c 000d 0000 4006 5c4c 0a01 0203 0a09  ......@.\L......
	0x0020:  0807 bdec 0008 0000 03ea 0000 0002 5010  ..............P.
	0x0030:  2000 56b1 0000 6162 6974 7572 2073 7573  ..V...abitur.sus
	0x0040:  6369 7069 7420 6661 6369 6c69 7369 7320  cipit.facilisis.
	0x0050:  6665 6c69 7320 7669 7461 6520 7068 6172  felis.vitae.phar
	0x0060:  6574 7261 2e20 5574 2065 7520 6e69 7369  etra..Ut.eu.nisi
	0x0070:  206e 6973 692e 2043 7261 7320 636f 6e64  .nisi..Cras.cond
	0x0080:  696d 656e 7475 6d20 6575 6973 6d6f 6420  imentum.euismod.
	0x0090:  6d61 7373 6120 6575 2074                 massa.eu.t
IP (tos 0x0, ttl 64, id 18, offset 0, flags [none], proto TCP (6), length 140)
    10.1.2.3.48620 > 10.9.8.7.8: Flags [.], cksum 0xcf04 (correct), seq 1501:1601, ack 1, win 8192, length 100
	0x0000:  0209 0807 0605 0201 0203 0405 0800 4500  ..............E.
	0x0010:  008c 0012 0000 4006 5c47 0a01 0203 0a09  ......@.\G......
	0x0020:  0807 bdec 0008 0000 05de 0000 0002 5010  ..............P.
	0x0030:  2000 cf04 0000 2073 6365 6c65 7269 7371  .......scelerisq
	0x0040:  7565 2c20 6c69 6775 6c61 2065 7420 616c  ue,.ligula.et.al
	0x0050:  6971 7565 7420 7665 7374 6962 756c 756d  iquet.vestibulum
	0x0060:  2c20 6572 6174 206d 6173 7361 2074 656d  ,.erat.massa.tem
	0x0070:  7075 7320 6d69 2c20 6163 2070 6f72 7474  pus.mi,.ac.portt
	0x0080:  6974 6f72 2074 7572 7069 7320 6d61 676e  itor.turpis.magn
	0x0090:  6120 7665 6c20 7572 6e61                 a.vel.urna
IP (tos 0x0, ttl 64, id 28, offset 0, flags [none], proto TCP (6), length 72)
    10.1.2.3.48620 > 10.9.8.7.8: Flags [.], cksum 0xc71a (correct), seq 2501:2533, ack 1, win 8192, length 32
	0x0000:  0209 0807 0605 0201 0203 0405 0800 4500  ..............E.
	0x0010:  0048 001c 0000 4006 5c81 0a01 0203 0a09  .H....@.\.......
	0x0020:  0807 bdec 0008 0000 09c6 0000 0002 5010  ..............P.
	0x0030:  2000 c71a 0000 616d 2076 6974 6165 2065  ......am.vitae.e
	0x0040:  6c69 7420 6a75 7374 6f2e 2043 7261 7320  lit.justo..Cras.
	0x0050:  7065 6c6c 656e                           pellen
IP (tos 0x0, ttl 64, id 16, offset 0, flags [none], proto TCP (6), length 140)
    10.1.2.3.48620 > 10.9.8.7.8: Flags [.], cksum 0xd2d6 (correct), seq 1301:1401, ack 1, win 8192, length 100
	0x0000:  0209 0807 0605 0201 0203 0405 0800 4500  ..............E.
	0x0010:  008c 0010 0000 4006 5c49 0a01 0203 0a09  ......@.\I......
	0x0020:  0807 bdec 0008 0000 0516 0000 0002 5010  ..............P.
	0x0030:  2000 d2d6 0000 2065 726f 7320 706f 7274  .......eros.port
	0x0040:  7469 746f 7220 636f 6e73 6571 7561 742e  titor.consequat.
	0x0050:  2020 5574 2061 2062 6962 656e 6475 6d20  ..Ut.a.bibendum.
	0x0060:  6c69 6775 6c61 2e20 5072 6f69 6e20 6575  ligula..Proin.eu
	0x0070:  6973 6d6f 6420 706f 7274 6120 6c65 6f20  ismod.porta.leo.
	0x0080:  6120 6469 6374 756d 2e20 4165 6e65 616e  a.dictum..Aenean
	0x0090:  2071 7569 7320 6970 7375                 .quis.ipsu
IP (tos 0x0, ttl 64, id 9, offset 0, flags [none], proto TCP (6), length 140)
    10.1.2.3.48620 > 10.9.8.7.8: Flags [.], cksum 0x9f6d (correct), seq 601:701, ack 1, win 8192, length 100
	0x0000:  0209 0807 0605 0201 0203 0405 0800 4500  ..............E.
	0x0010:  008c 0009 0000 4006 5c50 0a01 0203 0a09  ......@.\P......
	0x0020:  0807 bdec 0008 0000 025a 0000 0002 5010  .........Z....P.
	0x0030:  2000 9f6d 0000 2076 756c 7075 7461 7465  ...m...vulputate
	0x0040:  2061 6e74 6520 696e 2072 6973 7573 2075  .ante.in.risus.u
	0x0050:  6c6c 616d 636f 7270 6572 2072 7574 7275  llamcorper.rutru
	0x0060:  6d2e 2020 4675 7363 6520 7665 6c20 6461  m...Fusce.vel.da
	0x0070:  7069 6275 7320 6c65 6f2e 2049 6e20 7365  pibus.leo..In.se
	0x0080:  6420 6c61 6375 7320 6e65 6320 6c61 6375  d.lacus.nec.lacu
	0x0090:  7320 7469 6e63 6964 756e                 s.tincidun
IP (tos 0x0, ttl 64, id 25, offset 0, flags [none], proto TCP (6), length 140)
    10.1.2.3.48620 > 10.9.8.7.8: Flags [.], cksum 0x2a3e (correct), seq 2201:2301, ack 1, win 8192, length 100
	0x0000:  0209 0807 0605 0201 0203 0405 0800 4500  ..............E.
	0x0010:  008c 0019 0000 4006 5c40 0a01 0203 0a09  ......@.\@......
	0x0020:  0807 bdec 0008 0000 089a 0000 0002 5010  ..............P.
	0x0030:  2000 2a3e 0000 2066 6175 6369 6275 7320  ..*>...faucibus.
	0x0040:  6961 6375 6c69 732c 2065 726f 7320 6c65  iaculis,.eros.le
	0x0050:  6374 7573 2076 6f6c 7574 7061 7420 646f  ctus.volutpat.do
	0x0060:  6c6f 722c 206e 6f6e 2070 6f72 7461 2075  lor,.non.porta.u
	0x0070:  726e 6120 6d61 7572 6973 206c 6163 696e  rna.mauris.lacin
	0x0080:  6961 2065 7374 2e20 496e 7465 6765 7220  ia.est..Integer.
	0x0090:  6567 6573 7461 7320 6c65                 egestas.le
IP (tos 0x0, ttl 64, id 11, offset 0, flags [none], proto TCP (6), length 140)
    10.1.2.3.48620 > 10.9.8.7.8: Flags [.], cksum 0xd499 (correct), seq 801:901, ack 1, win 8192, length 100
	0x0000:  0209 0807 0605 0201 0203 0405 0800 4500  ..............E.
	0x0010:  008c 000b 0000 4006 5c4e 0a01 0203 0a09  ......@.\N......
	0x0020:  0807 bdec 0008 0000 0322 0000 0002 5010  ........."....P.
	0x0030:  2000 d499 0000 6173 7365 2070 6c61 7465  ......asse.plate
	0x0040:  6120 6469 6374 756d 7374 2e20 446f 6e65  a.dictumst..Done
	0x0050:  6320 736f 6c6c 6963 6974 7564 696e 2061  c.sollicitudin.a
	0x0060:  6e74 6520 6574 2061 6e74 6520 7469 6e63  nte.et.ante.tinc
	0x0070:  6964 756e 7420 7574 2070 6f72 7461 2065  idunt.ut.porta.e
	0x0080:  6c69 7420 7268 6f6e 6375 732e 2050 6861  lit.rhoncus..Pha
	0x0090:  7365 6c6c 7573 2072 6973                 sellus.ris
IP (tos 0x0, ttl 64, id 2, offset 0, flags [none], proto TCP (6), length 40)
    10.9.8.7.8 > 10.1.2.3.48620: Flags [.], cksum 0xa9e4 (correct), ack 2533, win 8192, length 0
	0x0000:  0201 0203 0405 0209 0807 0605 0800 4500  ..............E.
	0x0010:  0028 0002 0000 4006 5cbb 0a09 0807 0a01  .(....@.\.......
	0x0020:  0203 0008 bdec 0000 0002 0000 09e6 5010  ..............P.
	0x0030:  2000 a9e4 0000                           ......
IP (tos 0x0, ttl 64, id 29, offset 0, flags [none], proto TCP (6), length 40)
    10.1.2.3.48620 > 10.9.8.7.8: Flags [F.], cksum 0xa9e3 (correct), seq 2533, ack 1, win 8192, length 0
	0x0000:  0209 0807 0605 0201 0203 0405 0800 4500  ..............E.
	0x0010:  0028 001d 0000 4006 5ca0 0a01 0203 0a09  .(....@.\.......
	0x0020:  0807 bdec 0008 0000 09e6 0000 0002 5011  ..............P.
	0x0030:  2000 a9e3 0000                           ......
IP (tos 0x0, ttl 64, id 3, offset 0, flags [none], proto TCP (6), length 40)
    10.9.8.7.8 > 10.1.2.3.48620: Flags [F.], cksum 0xa9e2 (correct), seq 1, ack 2534, win 8192, length 0
	0x0000:  0201 0203 0405 0209 0807 0605 0800 4500  ..............E.
	0x0010:  0028 0003 0000 4006 5cba 0a09 0807 0a01  .(....@.\.......
	0x0020:  0203 0008 bdec 0000 0002 0000 09e7 5011  ..............P.
	0x0030:  2000 a9e2 0000                           ......
IP (tos 0x0, ttl 64, id 30, offset 0, flags [none], proto TCP (6), length 40)
    10.1.2.3.48620 > 10.9.8.7.8: Flags [.], cksum 0xa9e2 (correct), ack 2, win 8192, length 0
	0x0000:  0209 0807 0605 0201 0203 0405 0800 4500  ..............E.
	0x0010:  0028 001e 0000 4006 5c9f 0a01 0203 0a09  .(....@.\.......
	0x0020:  0807 bdec 0008 0000 09e7 0000 0003 5010  ..............P.
	0x0030:  2000 a9e2 0000                           ......
